:100000000C9448000C94750A0C949E0A0C94C70A30
:100010000C9465000C94E70C0C9465000C9465003E
:100020000C9465000C9465000C9465000C94CA0B4C
:100030000C942E0B0C9465000C9465000C946500D8
:100040000C9465000C9465000C9465000C9465009C
:100050000C9465004E414E494E495459494E46CD87
:10006000CCCC3D0AD7233C17B7D13877CC2B32956F
:1000700095E6241FB14F0A000020410000C842004D
:10008000401C4620BCBE4CCA1B0E5AAEC59D740017
:1000900011241FBECFE5D8E0DEBFCDBF12E0A0E641
:1000A000B0E0E6EBF2E202C005900D92A43AB1078F
:1000B000D9F722E0A4EAB2E001C01D92A63FB20740
:1000C000E1F70E9426090C9459110C94000010923B
:1000D000600008958091A6028F5F8093A602089524
:1000E0000E94E2050E94B1058AE690E00E94C305E5
:1000F0000E949C070E94A20447E650E062E080E074
:100100000E94CB058CE691E00E948A048AE00E945E
:1001100083044FE851E062E082E00E94CB0508953D
:1001200080916000813079F118F08230B1F108954A
:100130001092A50288EA92E00E943102843009F40C
:10014000EDC00E947403811104C082E080936000BE
:1001500008958091A4028F5F8093A402833009F0F8
:10016000DDC00E944F0864E080E00E94620882E9DE
:1001700091E00E9476088CE691E00E94CA0283E03A
:100180008093600008958091A5028111C7C00E94EC
:10019000C30181E08093A502089589E690E00E9462
:1001A000CE0261E670E089E690E00E94A00F892B04
:1001B00009F4B4C00E944F0842ED52E069E670E0D5
:1001C0008DED92E00E945E048093D602823009F4A5
:1001D00043C028F4882351F08130F9F0089583302A
:1001E00009F459C0843009F479C008956091D202AD
:1001F0007091D3028091D4029091D5020E94DF01C8
:1002000085E40E94BD0461E670E089E690E00E940A
:10021000A90F81E08093600008958CE691E00E9430
:10022000CA0264E080E00E94620889E991E00E94CD
:10023000760862E081E00E94620883EA91E00E9411
:10024000760842E061E070E080E090E00E940B05FB
:1002500083E08093600008958CE691E00E94CA02DA
:1002600064E080E00E9462088EEA91E00E947608D5
:1002700062E081E00E94620889EB91E00E947608CA
:1002800042E061E070E080E090E00E940B0583E0D6
:1002900080936000089564E080E00E94620883EC2F
:1002A00091E00E94760862E081E00E9462088EEC94
:1002B00091E00E94760842E061E070E080E090E02A
:1002C0000E940B050E944F0861E670E089E690E00D
:1002D0000E94A90F82E080936000089564E080E0AE
:1002E0000E9462088AED91E00E94760865E081E054
:1002F0000E94620888EE91E00E94760842E061E088
:1003000070E080E090E00E940B0561E670E089E615
:1003100090E00E94A90F82E0809360000895809190
:10032000A702811110C064E670E080E090E00E94B6
:10033000BB054FE851E061E082E00E94CB0581E01F
:100340008093A70208958130E9F40E94C00580914E
:10035000A6029FEF980F933118F41092710005C018
:10036000843118F081E0809371001092A6024FE86A
:1003700051E062E082E00E94CB058AE00E948304A3
:100380001092A70208950E944F0860E080E00E944A
:1003900062088DEE91E00E94760842E061E070E034
:1003A00080E090E00E940B050E944F0860E080E032
:1003B0000E9462088CEF91E00E9476080895CF9227
:1003C000DF92EF92FF926B017C0164E080E00E947B
:1003D00062088DE092E00E94760862E081E00E946F
:1003E000620886E192E00E94760842E061E070E0F7
:1003F00080E090E00E940B050E944F0864E080E0DE
:100400000E94620882E292E00E94760860E081E049
:100410000E9462088CE292E00E947608C701B60151
:100420000E948E0842E061E070E080E090E00E946F
:100430000B050E944F0861E080E00E94620886E39D
:1004400092E00E94760842E061E070E080E090E097
:100450000E940B050E944F08FF90EF90DF90CF9015
:1004600008950F931F93CF93DF938C010E944F0841
:1004700060E080E00E94620884E492E00E947608D6
:1004800060E081E00E94620882E080937100C0E039
:100490002EC00E942D07811117C08091710081111B
:1004A00026C082E080937100F801EC0FF11D80E31B
:1004B0008083D1E0DC0F6C2F81E00E9462088AE229
:1004C0000E94EB07CD2F13C0D801AC0FB11DE82F50
:1004D000F0E0E459FE4F80818C93D1E0DC0F6C2F6B
:1004E00081E00E9462088AE20E94EB07CD2FC430AF
:1004F00020F480917100813061F6C430B0F482E064
:10050000809371000E944F0860E080E00E946208C2
:1005100083E592E00E94760842E061E070E080E0CE
:1005200090E00E940B0584E001C083E0DF91CF9151
:100530001F910F910895009749F16115710541F1DF
:100540000E94A00F892B89F40E944F088DE592E04C
:100550000E9476082FE382E49FE021508040904083
:10056000E1F700C0000080E008950E944F0889E68E
:1005700092E00E9476082FE382E49FE021508040C1
:100580009040E1F700C0000081E0089582E0089506
:1005900082E0089561E00E9498040895DF92EF924E
:1005A000FF920F931F93CF93DF937C010E944F081C
:1005B00060E080E00E94620889E792E00E9476088D
:1005C00060E081E00E946208C7010E94760882E034
:1005D00080937100D12C71C00E942D07D82F8111FA
:1005E00059C080917100811168C082E080937100D0
:1005F000C0E020C0C33079F487010C0F111DF80151
:10060000828180836C2F81E00E946208F8018081E2
:100610000E94EB07C5E087010C0F111DF8018181D5
:1006200080836C2F81E00E946208F80180810E9423
:10063000EB07CF5FC630F0F280E3F701868366E018
:1006400081E00E946208F70186810E94EB07D39443
:1006500034C0C33079F487010C0F111DF801828179
:1006600080836C2F81E00E946208F80180810E94E3
:10067000EB07C5E087010C0F111DF8018181808314
:100680006C2F81E00E946208F80180810E94EB07D4
:10069000CF5F01C0C0E0C630E0F2ED2FF0E0E459DA
:1006A000FE4F8081F701868366E081E00E94620848
:1006B000F70186810E94EB07D394F5E0FD1528F041
:1006C00080917100813009F087CF80917100813075
:1006D000E1F782E080937100DF91CF911F910F913C
:1006E000FF90EF90DF90089580E50E94BD0481EEB9
:1006F00094E00197F1F700C0000065E087ED92E01B
:100700000E94D7049FEB27E289E09150204080406F
:10071000E1F700C0000087E40E94BD0481EE94E090
:100720000197F1F700C0000064E18DED92E00E94B6
:10073000D70468EA72E087ED92E00E949B02089578
:1007400066E872E00E94A00F181614F080E0089589
:1007500083E008950F931F93CF938C01C0E00CC0EA
:1007600089E1C89FB001112469587F4FC8010E94D8
:10077000A00F882329F0CF5FCA3090F381E001C039
:1007800080E0CF911F910F910895EF92FF920F9308
:100790001F93CF937C01C0E01DC00C2F10E089E1B6
:1007A000809FB001819F700D112469587F4FC70150
:1007B0000E94A00F81110DC089E1809FF001819FEF
:1007C000F00D1124EE58FF4F8481882339F082E028
:1007D00006C0CF5FCA3008F382E001C080E0CF914D
:1007E0001F910F91FF90EF9008954F925F926F923B
:1007F0007F928F929F92AF92BF92CF92DF92EF92B1
:10080000FF920F931F93CF937C01CB016A010E944B
:100810009C0F4B015C01C0E03DC00C2F10E089E152
:10082000809FB001819F700D112469587F4FC701CF
:100830000E94A00F81112DC089E1809FF001819F4E
:10084000F00D1124EE58FF4F40805180628073807C
:10085000A3019201C501B4010E948B0D1816CCF0C2
:10086000A5019401C301B2010E941E0D29E1209F40
:10087000F001219FF00D1124EE58FF4F608371832A
:1008800082839383F601608371838283938380E004
:1008900005C0CF5FCA3008F4C0CF84E0CF911F916C
:1008A0000F91FF90EF90DF90CF90BF90AF909F900F
:1008B0008F907F906F905F904F900895EF92FF928E
:1008C0000F931F93CF93DF93EC018B017A010E946A
:1008D000AA03813089F0CE010E94C503823061F005
:1008E000C8010E94A003833039F0A701B801CE01EE
:1008F0000E94F503843001F0DF91CF911F910F9199
:10090000FF90EF900895803218F461E00E946B0927
:1009100081E00895CF93DF93EC0161E088810E942C
:100920002B0960E088810E946B09DF91CF910895C7
:10093000009731F0FC0180810E946B0980E00895EE
:1009400081E0089561E08DE00E942B0961E08FE075
:100950000E942B0961E08CE00E942B0961E08CE091
:100960000E946B0960E08EE00E942B0962E08AE041
:100970000E94D5090E94F00A08951F93CF93DF9338
:100980001F92CDB7DEB7182F60E08CE00E946B0994
:10099000BE016F5F7F4F812F0E94080B61E08CE0EA
:1009A0000E946B090F90DF91CF911F910895CF9214
:1009B000DF92EF92FF920F931F93CF93DF931F92DB
:1009C000CDB7DEB76C01062F60E08CE00E946B09AA
:1009D000BE016F5F7F4F83E20E94080B10E076013B
:1009E000E10EF11CB70183E20E94080B1F5FF701C3
:1009F0008081833211F0101790F361E08CE00E9447
:100A00006B090F90DF91CF911F910F91FF90EF90A5
:100A1000DF90CF9008958F929F92AF92BF92CF9226
:100A2000DF92EF92FF920F931F93CF93DF9300D04B
:100A3000CDB7DEB76B017C01423059F49B01AC01AC
:100A400060E472E48FE090E00E94500F6B017C0143
:100A50000DC0413049F4A8EEB3E09B01AC010E9407
:100A6000820F6B017C0102C041116BC088E8C8167F
:100A700083E1D806E104F104C8F088EAC81681E6EB
:100A8000D806E104F104A0F088E4C81688EED80680
:100A900081E0E806F10470F080E2C81681EAD80629
:100AA00087E0E806F10440F414E007C011E005C057
:100AB00012E003C013E001C015E0E12FF0E0319730
:100AC000EE0FFF1FE257FD4F6081718176956795AC
:100AD000769567957695679580E090E00E94310E57
:100AE0004B015C01C701B6010E94310EA5019401C2
:100AF0000E94900D0E94020EF62E072F80E00E94A9
:100B0000790B8F2D81950E94AA0B812F0E94920B49
:100B100010E011C0CE0101960E94AC0BCE010296EE
:100B20000E94BA0B8981811103C08A818111F2CFA1
:100B30000E94B60B1F5F011768F70E94A00B80E0B0
:100B400001C081E00F900F90DF91CF911F910F9125
:100B5000FF90EF90DF90CF90BF90AF909F908F90DD
:100B6000089580E00E94080C84E00E94360C0E94E8
:100B70004A0C80E008950E94630C0E94520C089574
:100B80000E945C0C0895009721F00E94E00C80E028
:100B9000089581E008950F931F93CF93C82F8A0182
:100BA0000E94D509811107C0B8018C2F0E945C0AF0
:100BB000811103C003C081E001C081E0CF911F918A
:100BC0000F91089561E082E10E942B0961E083E1C9
:100BD0000E942B0961E084E10E942B0960E085E11D
:100BE0000E942B0960E086E10E942B0960E087E10A
:100BF0000E942B090895CF93DF931F92CDB7DEB7E4
:100C000061E085E10E946B0961E086E10E946B0969
:100C100061E087E10E946B0961E083E10E946B095A
:100C200061E084E10E946B0960E082E10E946B094F
:100C300081E08983BE016F5F7F4F85E10E94AB0930
:100C40008981882339F00BC0BE016F5F7F4F85E13A
:100C50000E94AB0989818823B9F381E02EC081E02D
:100C60008983BE016F5F7F4F86E10E94AB09898156
:100C7000882339F00BC0BE016F5F7F4F86E10E9471
:100C8000AB0989818823B9F382E017C081E08983A9
:100C9000BE016F5F7F4F87E10E94AB098981882386
:100CA00041F080E00AC0BE016F5F7F4F87E10E9484
:100CB000AB0989818823B9F383E00F90DF91CF914D
:100CC0000895CF93DF931F92CDB7DEB761E085E142
:100CD0000E946B0961E086E10E946B0961E087E197
:100CE0000E946B0961E082E10E946B0961E084E18E
:100CF0000E946B0960E083E10E946B0981E08983B7
:100D0000BE016F5F7F4F85E10E94AB098981882317
:100D100039F00BC0BE016F5F7F4F85E10E94AB09C8
:100D200089818823B9F384E02EC081E08983BE01E4
:100D30006F5F7F4F86E10E94AB098981882339F07C
:100D40000BC0BE016F5F7F4F86E10E94AB098981B6
:100D50008823B9F385E017C081E08983BE016F5F06
:100D60007F4F87E10E94AB098981882341F080E0B1
:100D70000AC0BE016F5F7F4F87E10E94AB09898186
:100D80008823B9F386E00F90DF91CF910895CF9338
:100D9000DF931F92CDB7DEB761E085E10E946B095A
:100DA00061E086E10E946B0961E087E10E946B09C6
:100DB00061E082E10E946B0961E083E10E946B09BE
:100DC00060E084E10E946B0981E08983BE016F5F6E
:100DD0007F4F85E10E94AB098981882339F00BC0E0
:100DE000BE016F5F7F4F85E10E94AB098981882337
:100DF000B9F387E02EC081E08983BE016F5F7F4F2A
:100E000086E10E94AB098981882339F00BC0BE01BD
:100E10006F5F7F4F86E10E94AB0989818823B9F318
:100E200088E017C081E08983BE016F5F7F4F87E153
:100E30000E94AB098981882341F080E00AC0BE018D
:100E40006F5F7F4F87E10E94AB0989818823B9F3E7
:100E500089E00F90DF91CF9108950E94FB058111E9
:100E600006C00E946106811102C00E94C706089553
:100E70001F93CF93DF93D82F60E082E00E946B092D
:100E800060E081E00E946B091D2F12951F70C0E089
:100E900011C0EC2FF0E0612F70E00C2E02C07595B0
:100EA00067950A94E2F76170EA58FE4F80810E94CC
:100EB0006B09CF5FC43068F361E083E00E946B0987
:100EC00089EF90E00197F1F700C0000060E083E057
:100ED0000E946B0992E49A95F1F700C0DF70C0E0C0
:100EE00011C0EC2FF0E06D2F70E00C2E02C0759554
:100EF00067950A94E2F76170EA58FE4F80810E947C
:100F00006B09CF5FC43068F361E083E00E946B0936
:100F100089EF90E00197F1F700C0000060E083E006
:100F20000E946B0983EF91E00197F1F700C0000088
:100F3000DF91CF911F910895CF93C0E009C0EC2FAE
:100F4000F0E0EA58FE4F61E080810E942B09CF5FFC
:100F5000C430A8F361E081E00E942B0961E082E0E7
:100F60000E942B0961E083E00E942B098FE097E249
:100F70000197F1F700C0000082E00E94380789EF76
:100F800090E00197F1F700C0000088E20E94380766
:100F900089EF90E00197F1F700C0000081E00E9426
:100FA000380787EE93E00197F1F700C0000086E074
:100FB0000E94380789EF90E00197F1F700C0000028
:100FC0008EE00E94380789EF90E00197F1F700C0AA
:100FD0000000CF9108951F93CF93DF93D82F60E047
:100FE00082E00E946B0961E081E00E946B091D2F85
:100FF00012951F70C0E011C0EC2FF0E0612F70E07F
:101000000C2E02C0759567950A94E2F76170EA5854
:10101000FE4F80810E946B09CF5FC43068F361E0AE
:1010200083E00E946B0989EF90E00197F1F700C01F
:10103000000060E083E00E946B0992E49A95F1F76A
:1010400000C0DF70C0E011C0EC2FF0E06D2F70E049
:101050000C2E02C0759567950A94E2F76170EA5804
:10106000FE4F80810E946B09CF5FC43068F361E05E
:1010700083E00E946B0989EF90E00197F1F700C0CF
:10108000000060E083E00E946B0983EF91E001972C
:10109000F1F700C00000DF91CF911F91089581E02A
:1010A0000E94380787EE93E00197F1F700C0000037
:1010B00082E00E94380787EE93E00197F1F700C0C5
:1010C00000000895811108C0603130F4862F8F70C0
:1010D00080680E9438070895813039F4603128F41F
:1010E000862F8F70806C0E94380708950F931F938E
:1010F000CF93DF938C01FC018081C0E0D0E007C07A
:101100000E94EB072196F801EC0FFD1F80818111F1
:10111000F7CFDF91CF911F910F9108958F929F92FA
:10112000AF92BF92CF92DF92EF92FF921F93CF9335
:10113000DF93CDB7DEB72C970FB6F894DEBF0FBEA6
:10114000CDBF4B015C010E94020E6B01E12CF12C22
:10115000C701B6010E94310E9B01AC01C501B4016B
:101160000E941E0D20E030E048EC52E40E94E30EA5
:101170000E94020E8DEC689F812D11248695869524
:101180008695282F220F922F990F990F920F691B86
:10119000605D6983805D8A838EE28B8313E015C076
:1011A000C701B6012AE030E040E050E00E94600F45
:1011B000E1E0F0E0EC0FFD1FE10FF11D605D6083E9
:1011C000C22ED32EE42EF52E1F5FC114D104E104EC
:1011D000F10431F7412F50E0E1E0F0E0EC0FFD1FAA
:1011E000E40FF51F108280E017C0282F30E0A1E047
:1011F000B0E0AC0FBD1FA20FB31F9C91FA01E21B20
:10120000F30B319721E030E02C0F3D1FE20FF31F6D
:1012100020812C9390838F5F912F9695891728F3C7
:10122000CE0101960E9476082C960FB6F894DEBF88
:101230000FBECDBFDF91CF911F91FF90EF90DF9058
:10124000CF90BF90AF909F908F9008950E947000B4
:101250000E949000FDCF8032C0F56230C0F5E82FCB
:10126000E695E695E6958770611117C0F0E0EE0F00
:10127000FF1FEE57FE4F0190F081E02D408121E0ED
:1012800030E0B90102C0660F771F8A95E2F7CB0103
:1012900080958423808380E008956130D1F4F0E06C
:1012A000EE0FFF1FEE57FE4F0190F081E02D4081C1
:1012B00021E030E0B90102C0660F771F8A95E2F79E
:1012C000CB01842B808380E008958FEF08958FEF0A
:1012D000089580E008958032C0F56230C0F5E82FAF
:1012E000E695E695E6958770611117C0F0E0EE0F80
:1012F000FF1FE657FE4F0190F081E02D408121E075
:1013000030E0B90102C0660F771F8A95E2F7CB0182
:1013100080958423808380E008956130D1F4F0E0EB
:10132000EE0FFF1FE657FE4F0190F081E02D408148
:1013300021E030E0B90102C0660F771F8A95E2F71D
:10134000CB01842B808380E008958FEF08958FEF89
:10135000089580E008958032D8F4E82FE695E69568
:10136000E6958770F0E0EE0FFF1FE658FE4F019004
:10137000F081E02D208130E0A90102C0559547950C
:101380008A95E2F7CA018170FB01808380E00895AD
:101390008FEF0895813019F4789480E008958111D9
:1013A00002C0F894089581E00895CF93DF93C82F89
:1013B000D62F81E00E94CA09C13099F120F0C230D5
:1013C00009F45DC072C0D11107C085B78E7F85BF9B
:1013D00085B78D7F85BF20C0D13039F485B78E7F2A
:1013E00085BF85B7826085BF17C0D23039F485B715
:1013F000816085BF85B7826085BF0EC0D33039F468
:1014000085B7816085BF85B78D7F85BF05C080E0CA
:101410000E94CA0981E04DC08BB780648BBF80E019
:1014200048C0D11107C085B78B7F85BF85B7877F3F
:1014300085BF20C0D13039F485B78B7F85BF85B794
:10144000886085BF17C0D23039F485B7846085BF06
:1014500085B7886085BF0EC0D33039F485B7846006
:1014600085BF85B7877F85BF05C080E00E94CA0918
:1014700081E01FC08BB780688BBF80E01AC0D1307D
:1014800021F484B78F7B84BF0BC0D23021F484B7A2
:10149000806484BF05C080E00E94CA0981E009C061
:1014A0008BB780628BBF80E004C080E00E94CA09D5
:1014B00081E0DF91CF910895811105C07093B20250
:1014C0006093B1020895813031F47093B00260935B
:1014D000AF0280E00895823031F47093AE026093E1
:1014E000AD0280E0089581E008951F920F920FB63B
:1014F0000F9211242F933F934F935F936F937F939A
:101500008F939F93AF93BF93EF93FF93E091B102BB
:10151000F091B202309709F00995FF91EF91BF91D8
:10152000AF919F918F917F916F915F914F913F917B
:101530002F910F900FBE0F901F9018951F920F9232
:101540000FB60F9211242F933F934F935F936F9396
:101550007F938F939F93AF93BF93EF93FF93E0910C
:10156000AF02F091B002309709F00995FF91EF9129
:10157000BF91AF919F918F917F916F915F914F91AB
:101580003F912F910F900FBE0F901F9018951F92B3
:101590000F920FB60F9211242F933F934F935F93A7
:1015A0006F937F938F939F93AF93BF93EF93FF932B
:1015B000E091AD02F091AE02309709F00995FF91EC
:1015C000EF91BF91AF919F918F917F916F915F91BB
:1015D0004F913F912F910F900FBE0F901F90189534
:1015E0008DB180618DB98DB19EB18E7F9C7F9EB98A
:1015F0008DB98DB19EB193609EB98DB98DB1877F44
:101600008DB98DB18B7F8DB98DB180648DB9089501
:1016100061157105F9F08FB980E090E0DC0103C03D
:101620000196A11DB11D779907C0803A26E892075F
:1016300021E0A207B105A0F3803A9648A140B10588
:1016400059F08FB1FB018083F1E2FA95F1F70000C8
:1016500080E0089581E0089581E008951F920F923F
:101660000FB60F9211242F933F938F939F93EF9375
:10167000FF938FB18093F1029091C4029F3011F4D7
:101680001092C402833259F09091C402E92FF0E025
:10169000ED54FD4F80839F5F9093C40204C08091FE
:1016A000C4028093F2028091C5029091F3028917DF
:1016B00088F42091C2023091C3022115310551F006
:1016C00091E0980F9093C502F901E80FF11D808118
:1016D0008FB904C0891710F083E28FB9FF91EF91A1
:1016E0009F918F913F912F910F900FBE0F901F9060
:1016F0001895813061F028F0823029F0833029F08C
:101700000FC020E005C028E003C028E401C020E4A9
:1017100093B7977B93BF83B7822B83BF80E00895F5
:1017200081E008959FEF980F973040F493B7987F2A
:1017300093BF93B7892B83BF80E0089581E008951C
:1017400083B7887F83BF12BE88B78E7F88BF109211
:10175000C802089582BF0895FC01892B29F098B72B
:101760009170908380E0089581E0089588B781604A
:1017700088BF0895009761F003B600FE05C021E020
:10178000FC01208380E00895FC01108280E0089530
:1017900081E008951F920F920FB60F9211242F939C
:1017A0003F934F935F936F937F938F939F93AF93E9
:1017B000BF93EF93FF938091C6029091C702892B4C
:1017C000B1F08091C8029091C90289130DC00E94A6
:1017D000A00B1092C80289B78E7F89BFE091C60224
:1017E000F091C702099503C08F5F8093C802FF91F3
:1017F000EF91BF91AF919F918F917F916F915F9189
:101800004F913F912F910F900FBE0F901F90189501
:10181000843040F5813071F028F0823099F08330C7
:10182000C9F022C085B5877F85BD85B58F7B85BD15
:1018300080E0089585B5877F85BD85B5806485BDC9
:1018400080E0089585B5886085BD85B58F7B85BDB1
:1018500080E0089585B5886085BD85B5806485BDC7
:1018600080E0089581E0089581E00895883070F463
:101870008093D1029091D002913051F495B5987F28
:10188000892B95B5892B85BD80E0089581E0089569
:1018900080E0089589B7806489BF8FB780688FBF63
:1018A00080E0089595B58091D102892B85BD81E0B6
:1018B0008093D00280E0089585B5887F85BD109221
:1018C000D00280E008958F929F92AF92BF92CF9204
:1018D000DF92EF92FF92683823E17207810591054C
:1018E00008F060C06B017C01E091D102F0E0EE0FE6
:1018F000FF1FE856FD4F6081718180E090E00E94FB
:10190000310E20E030E04AEF55E40E94900D4B018B
:101910005C01C701B6010E94310EA50194010E942D
:10192000900D0E94020E611521E07207810591055C
:1019300029F481E08093CF0280E039C06F3F7105C8
:101940008105910509F078F420E031E0C901861B9A
:10195000970B9093CE028093CD0284BD81E080935B
:10196000CF0280E024C0613021E07207810591053B
:10197000D8F07093CF02772780E091E0861B970B19
:101980009093CE028093CD0284BD8091CD02909140
:10199000CE02892B59F08091CF028F5F8093CF02C6
:1019A00080E005C081E003C080E001C080E0FF90DE
:1019B000EF90DF90CF90BF90AF909F908F90089561
:1019C000009721F09093CC028093CB0208951F9250
:1019D0000F920FB60F9211242F933F934F935F9363
:1019E0006F937F938F939F93AF93BF93EF93FF93E7
:1019F0008091CA028F5F8093CA029091CF028913AF
:101A00000CC0E091CB02F091CC02309731F01092F3
:101A1000CA0209958091CD0284BDFF91EF91BF91DB
:101A2000AF919F918F917F916F915F914F913F9176
:101A30002F910F900FBE0F901F9018955058BB27F5
:101A4000AA270E94360D0C94A90E0E949B0E38F016
:101A50000E94A20E20F039F49F3F19F426F40C9452
:101A6000980E0EF4E095E7FB0C94920EE92F0E947D
:101A7000BA0E58F3BA17620773078407950720F068
:101A800079F4A6F50C94DC0E0EF4E0950B2EBA2F2B
:101A9000A02D0B01B90190010C01CA01A001112474
:101AA000FF27591B99F0593F50F4503E68F11A1620
:101AB000F040A22F232F342F4427585FF3CF4695B1
:101AC00037952795A795F0405395C9F77EF41F16D3
:101AD000BA0B620B730B840BBAF09150A1F0FF0F9D
:101AE000BB1F661F771F881FC2F70EC0BA0F621F89
:101AF000731F841F48F4879577956795B795F79579
:101B00009E3F08F0B0CF9395880F08F09927EE0F0D
:101B10009795879508950E946E0E08F481E00895C8
:101B20000E94A40D0C94A90E0E94A20E58F00E94CF
:101B30009B0E40F029F45F3F29F00C94920E511156
:101B40000C94DD0E0C94980E0E94BA0E68F3992343
:101B5000B1F3552391F3951B550BBB27AA276217A9
:101B60007307840738F09F5F5F4F220F331F441FB6
:101B7000AA1FA9F335D00E2E3AF0E0E832D09150EA
:101B80005040E695001CCAF72BD0FE2F29D0660FD7
:101B9000771F881FBB1F261737074807AB07B0E81A
:101BA00009F0BB0B802DBF01FF2793585F4F3AF020
:101BB0009E3F510578F00C94920E0C94DD0E5F3F21
:101BC000E4F3983ED4F3869577956795B795F795A6
:101BD0009F5FC9F7880F911D9695879597F908958E
:101BE000E1E0660F771F881FBB1F6217730784072A
:101BF000BA0720F0621B730B840BBA0BEE1F88F739
:101C0000E09508950E94C20E88F09F5798F0B92F72
:101C10009927B751B0F0E1F0660F771F881F991F21
:101C20001AF0BA95C9F714C0B13091F00E94DC0ED9
:101C3000B1E008950C94DC0E672F782F8827B85FE9
:101C400039F0B93FCCF3869577956795B395D9F779
:101C50003EF490958095709561957F4F8F4F9F4F83
:101C60000895E89409C097FB3EF49095809570958F
:101C700061957F4F8F4F9F4F9923A9F0F92F96E9D8
:101C8000BB279395F695879577956795B795F1114D
:101C9000F8CFFAF4BB0F11F460FF1BC06F5F7F4FEA
:101CA0008F4F9F4F16C0882311F096E911C07723FC
:101CB00021F09EE8872F762F05C0662371F096E805
:101CC000862F70E060E02AF09A95660F771F881FD4
:101CD000DAF7880F9695879597F90895990F000878
:101CE000550FAA0BE0E8FEEF16161706E807F907EE
:101CF000C0F012161306E407F50798F0621B730B89
:101D0000840B950B39F40A2661F0232B242B252B09
:101D100021F408950A2609F4A140A6958FEF811DAC
:101D2000811D089597F99F6780E870E060E008954D
:101D30009FEF80EC089500240A94161617061806E3
:101D40000906089500240A941216130614060506BF
:101D50000895092E0394000C11F4882352F0BB0F50
:101D600040F4BF2B11F460FF04C06F5F7F4F8F4FB3
:101D70009F4F089557FD9058440F551F59F05F3FEE
:101D800071F04795880F97FB991F61F09F3F79F09D
:101D900087950895121613061406551FF2CF46951F
:101DA000F1DF08C0161617061806991FF1CF8695A1
:101DB0007105610508940895E894BB276627772785
:101DC000CB0197F908950E94F60E0C94A90E0E947B
:101DD0009B0E38F00E94A20E20F0952311F00C9477
:101DE000920E0C94980E11240C94DD0E0E94BA0EE3
:101DF00070F3959FC1F3950F50E0551F629FF0015E
:101E0000729FBB27F00DB11D639FAA27F00DB11D76
:101E1000AA1F649F6627B00DA11D661F829F2227FF
:101E2000B00DA11D621F739FB00DA11D621F839F86
:101E3000A00D611D221F749F3327A00D611D231F5C
:101E4000849F600D211D822F762F6A2F11249F57AA
:101E500050409AF0F1F088234AF0EE0FFF1FBB1FAD
:101E6000661F771F881F91505040A9F79E3F51056C
:101E700080F00C94920E0C94DD0E5F3FE4F3983EDC
:101E8000D4F3869577956795B795F795E7959F5F16
:101E9000C1F7FE2B880F911D9695879597F90895A8
:101EA000DB018F939F930E94820FBF91AF91A29FFE
:101EB000800D911DA39F900DB29F900D1124089548
:101EC000A1E21A2EAA1BBB1BFD010DC0AA1FBB1F3E
:101ED000EE1FFF1FA217B307E407F50720F0A21BB0
:101EE000B30BE40BF50B661F771F881F991F1A941D
:101EF00069F760957095809590959B01AC01BD0147
:101F0000CF0108950E948D0FA59F900DB49F900D55
:101F1000A49F800D911D11240895A29FB001B39F2D
:101F2000C001A39F700D811D1124911DB29F700DE2
:101F3000811D1124911D0895662777270C94B00FF9
:101F4000FB01DC018D91019080190110D9F3990BEF
:101F50000895FB01DC0101900D920020E1F7089546
:101F6000A0E0B0E0E6EBFFE00C942811EC016B017F
:101F70006115710519F0FB01918380837E01FFEFEC
:101F8000EF1AFF0A0881802F90E00E94FE10892B33
:101F900011F0E701F3CF0D3239F47E0182E0E80E53
:101FA000F11C098111E008C00B3229F47E0192E096
:101FB000E90EF11C098110E0E701219743E050E0B0
:101FC0006CE570E0CE010E940711892BC1F42396C5
:101FD00045E050E067E570E0CE010E940711892BD3
:101FE00009F42596C114D10419F0F601D183C083F8
:101FF0001111F6C060E070E080E89FE7FAC043E0AE
:1020000050E064E570E0CE010E940711892B59F47D
:10201000C114D10409F4E9C0F2E0EF0EF11CF6019D
:10202000F182E082E2C020E030E0A901C0E0D0E02F
:10203000F70180EDA82EA00E89E08A1530F1912FCE
:102040009260B92E812F887012FF04C0811124C0C4
:10205000219622C081112197A5E0B0E00E94820F55
:10206000DC01CB01880F991FAA1FBB1F9C01AD018A
:102070002A0D311D411D511D283989E938074807AE
:1020800089E1580748F0166006C09EEFA9120AC001
:1020900013FD40C01860B12E8FEFE81AF80A0081D6
:1020A0001B2DC6CF802F8F7D8534A1F580818D3289
:1020B00011F4106106C08B3221F0319661E070E0BE
:1020C00004C08181329662E070E080538A3018F05B
:1020D000E61BF70B1FC060E070E060389CE07907FA
:1020E0005CF4DB01AA0FBB1FAA0FBB1F6A0F7B1F8B
:1020F000660F771F680F711D3196DF0111978C9164
:1021000080538A3050F314FF03C0719561957109B3
:10211000C60FD71F11FF08C0C114D10429F0CF0189
:102120000197F60191838083CA01B9010E94310EA3
:10213000212F2370233019F04B015C0106C04B01A5
:102140005C01B7FAB094B7F8B09420E030E0A90190
:10215000C501B4010E948B0D882309F43EC0D7FF4E
:1021600006C0D195C195D10903E710E002C00BE884
:1021700010E06801F8E1CF1AD10890E2E92EF12CC5
:10218000CE15DF0574F0F8012591359145915491F4
:10219000C501B4010E94E30E4B015C01CE19DF09B9
:1021A000EFCF04501109F594E7940C151D0541F784
:1021B0008A2D880F8B2D881F8F3F49F020E030E05B
:1021C000A901C501B4010E948B0D811106C082E2F4
:1021D00090E09093F5028093F402C501B40109C028
:1021E00060E070E080E89FEF04C060E070E080ECA9
:1021F0009FE7CDB7DEB7ECE00C94441191110C943D
:102200001F11803219F089508550C8F70895FB01DD
:10221000DC014150504088F08D9181341CF08B35A9
:102220000CF4805E659161341CF06B350CF4605EDB
:10223000861B611171F3990B0895881BFCCF9927B8
:10224000882708952F923F924F925F926F927F92CC
:102250008F929F92AF92BF92CF92DF92EF92FF92B6
:102260000F931F93CF93DF93CDB7DEB7CA1BDB0B62
:102270000FB6F894DEBF0FBECDBF09942A88398807
:1022800048885F846E847D848C849B84AA84B9840E
:10229000C884DF80EE80FD800C811B81AA81B9811A
:1022A000CE0FD11D0FB6F894DEBF0FBECDBFED012E
:0622B0000895F894FFCF31
:1022B60001303030302E303000303030302E30307B
:1022C600000200606A460132323234313232343131
:1022D600323234313232340000000000FE584701F9
:1022E60034333134343331343433313434333134B8
:1022F600340000000000FA440031323334353637FA
:102306003839313233343536373839340000C82F4E
:102316004700343431373132333435363738393192
:1023260031330000000000409C450131313131312C
:1023360031313131313131313131313131310000E9
:102346000000000000000000000000000000000087
:102356000000000000000000000000000000000077
:102366000000000000000000000000000000000067
:102376000000000000000000000000000000000057
:102386000000000000000000000000000000000047
:102396000000000000000000000000000000000037
:1023A6000000000000000000000000000000000027
:1023B6000000000000000000000000000B31323376
:1023C6003435363738390405060739003600330008
:1023D60030003A003700340031003B003800350049
:1023E60032004C4F434B454400546869732069736F
:1023F600206100467261756420436172640054680E
:1024060069732043617264200069732053746F6C92
:10241600656E004D6178204C696D697420006973A2
:1024260020457863656564656400494E53554646A4
:10243600494349454E54200046554E440057656C65
:10244600636F6D6520546F2041746D00496E73652E
:10245600727420596F757220436172640041707006
:10246600726F766564005472616E73616374696F2E
:102476006E0052656D61696E696E670042616C61DE
:102486006E6365202000456A656374696E67204344
:1024960061726400456E74657220596F75722070A2
:1024A600696E0053686F72742050696E0050494E11
:1024B6005F4D4154434845440050494E5F4E4F548A
:1024C6005F4D41544348454400454E5445522061B2
:1024D6006D6F756E7400353030302E30300001006F
:1024E6000800400009010004000001000800400047
:0424F60000010004DD
:00000001FF
