:100000000C9448000C94860A0C94AF0A0C94D80AFD
:100010000C9465000C94D60C0C9465000C9465004F
:100020000C9465000C9465000C9465000C94B90B5D
:100030000C943F0B0C9465000C9465000C946500C7
:100040000C9465000C9465000C9465000C9465009C
:100050000C9465004E414E494E495459494E46CD87
:10006000CCCC3D0AD7233C17B7D13877CC2B32956F
:1000700095E6241FB14F0A000020410000C842004D
:10008000401C4620BCBE4CCA1B0E5AAEC59D740017
:1000900011241FBECFE5D8E0DEBFCDBF12E0A0E641
:1000A000B0E0E4E9F2E202C005900D92A43AB10793
:1000B000D9F722E0A4EAB2E001C01D92A13EB20746
:1000C000E1F70E9437090C9448110C94000010923B
:1000D000600008958091A5028F5F8093A502089526
:1000E0000E94F3050E94C2058AE690E00E94D405B2
:1000F0000E94AD070E94B30447E650E062E080E052
:100100000E94DC058CE691E00E949B048AE00E943C
:10011000940445E951E062E082E00E94DC05089524
:10012000809160008130C9F118F08230E1F10895CA
:1001300087EA92E00E943702843009F4F5C065EC4A
:1001400072E08AEC92E00E94D0028111EDC065EC71
:1001500072E087EA92E00E94A102811104C082E06D
:100160008093600008958091A4028F5F8093A40221
:10017000833009F0D9C00E94600864E080E00E94EA
:10018000730882E991E00E9487088CE691E00E9462
:10019000CC0283E08093600008950E94C90183E04F
:1001A00080936000089589E690E00E940B0361E669
:1001B00070E089E690E00E948F0F892B09F4B4C0AB
:1001C0000E94600840EC52E069E670E08AEC92E040
:1001D0000E946F048093C402823009F443C028F463
:1001E000882351F08130F9F00895833009F459C023
:1001F000843009F479C008956091C0027091C10201
:100200008091C2029091C3020E94E50185E40E94A0
:10021000CE0461E670E089E690E00E94980F81E0EC
:100220008093600008958CE691E00E94CC0264E027
:1002300080E00E94730889E991E00E94870862E0EB
:1002400081E00E94730883EA91E00E94870842E0FF
:1002500061E070E080E090E00E941C0583E0809304
:10026000600008958CE691E00E94CC0264E080E09A
:100270000E9473088EEA91E00E94870862E081E0A4
:100280000E94730889EB91E00E94870842E061E0D8
:1002900070E080E090E00E941C0583E080936000A5
:1002A000089564E080E00E94730883EC91E00E946E
:1002B000870862E081E00E9473088EEC91E00E9462
:1002C000870842E061E070E080E090E00E941C0559
:1002D0000E94600861E670E089E690E00E94980F55
:1002E00082E080936000089564E080E00E947308DB
:1002F0008AED91E00E94870865E081E00E94730822
:1003000088EE91E00E94870842E061E070E080E0C2
:1003100090E00E941C0561E670E089E690E00E9492
:10032000980F82E08093600008958091A602811169
:1003300010C064E670E080E090E00E94CC0545E9E2
:1003400051E061E082E00E94DC0581E08093A6023A
:1003500008958130E9F40E94D1058091A5029FEFB4
:10036000980F933118F41092710005C0843118F081
:1003700081E0809371001092A50245E951E062E0AE
:1003800082E00E94DC058AE00E9494041092A6029A
:1003900008950E94600860E080E00E9473088DEE7E
:1003A00091E00E94870842E061E070E080E090E028
:1003B0000E941C050E94600860E080E00E947308B3
:1003C0008CEF91E00E9487080895CF92DF92EF9220
:1003D000FF926B017C0164E080E00E9473088DE075
:1003E00092E00E94870862E081E00E94730886E143
:1003F00092E00E94870842E061E070E080E090E0D7
:100400000E941C050E94600864E080E00E9473085E
:1004100082E292E00E94870860E081E00E94730817
:100420008CE292E00E948708C701B6010E949F08F3
:1004300042E061E070E080E090E00E941C050E94D4
:10044000600861E080E00E94730886E392E00E9409
:10045000870842E061E070E080E090E00E941C05C7
:100460000E946008FF90EF90DF90CF9008950F9367
:100470001F93CF93DF938C010E94600860E080E0BF
:100480000E94730884E492E00E94870860E081E0A3
:100490000E94730882E080937100C0E02EC00E9429
:1004A0003E07811117C080917100811126C082E042
:1004B00080937100F801EC0FF11D80E38083D1E09F
:1004C000DC0F6C2F81E00E9473088AE20E94FC0717
:1004D000CD2F13C0D801AC0FB11DE82FF0E0E459C7
:1004E000FE4F80818C93D1E0DC0F6C2F81E00E9465
:1004F00073088AE20E94FC07CD2FC43020F480915B
:100500007100813061F6C430B0F482E080937100F4
:100510000E94600860E080E00E94730883E592E03A
:100520000E94870842E061E070E080E090E00E9475
:100530001C0584E001C083E0DF91CF911F910F91F2
:100540000895009729F16115710521F10E948F0F1F
:10055000892B79F40E9460088DE592E00E9487085B
:1005600042E061E070E080E090E00E941C0580E0E5
:1005700008950E94600889E692E00E94870842E0A0
:1005800061E070E080E090E00E941C0581E0089549
:1005900082E0089582E0089561E00E94A904089530
:1005A000672B89F1892B89F180E50E94CE0441E017
:1005B00065E070E080E090E00E941C0565E085EC5D
:1005C00092E00E94E80441E06AE070E080E090E0A0
:1005D0000E941C0587E40E94CE0441E065E070E0C3
:1005E00080E090E00E941C0564E18AEC92E00E94A9
:1005F000E8048091CA02833251F08091C5028332AF
:1006000041F080E0089581E0089581E0089582E05E
:10061000089582E00895DF92EF92FF920F931F9367
:10062000CF93DF937C010E94600860E080E00E942D
:10063000730889E792E00E94870860E081E00E94E9
:100640007308C7010E94870882E080937100D12C53
:1006500071C00E943E07D82F811159C0809171004E
:10066000811168C082E080937100C0E020C0C33077
:1006700079F487010C0F111DF801828180836C2FA2
:1006800081E00E947308F80180810E94FC07C5E0A8
:1006900087010C0F111DF801818180836C2F81E08F
:1006A0000E947308F80180810E94FC07CF5FC6306A
:1006B000F0F280E3F701868366E081E00E94730830
:1006C000F70186810E94FC07D39434C0C33079F4CB
:1006D00087010C0F111DF801828180836C2F81E04E
:1006E0000E947308F80180810E94FC07C5E0870121
:1006F0000C0F111DF801818180836C2F81E00E9415
:100700007308F80180810E94FC07CF5F01C0C0E040
:10071000C630E0F2ED2FF0E0E459FE4F8081F701A2
:10072000868366E081E00E947308F70186810E945B
:10073000FC07D394F5E0FD1528F08091710081301D
:1007400009F087CF809171008130E1F782E08093DA
:100750007100DF91CF911F910F91FF90EF90DF908B
:10076000089566E872E00E948F0F181614F080E07A
:10077000089583E008950F931F93CF938C01C0E0F9
:100780000CC089E1C89FB001112469587F4FC8018E
:100790000E948F0F882329F0CF5FCA3090F381E049
:1007A00001C080E0CF911F910F910895EF92FF92C9
:1007B0000F931F93CF937C01C0E01DC00C2F10E05E
:1007C00089E1809FB001819F700D112469587F4F8E
:1007D000C7010E948F0F81110DC089E1809FF00138
:1007E000819FF00D1124EE58FF4F8481882339F04A
:1007F00082E006C0CF5FCA3008F382E001C080E02B
:10080000CF911F910F91FF90EF9008954F925F92BB
:100810006F927F928F929F92AF92BF92CF92DF9210
:10082000EF92FF920F931F93CF937C01CB016A014C
:100830000E948B0F4B015C01C0E03DC00C2F10E00B
:1008400089E1809FB001819F700D112469587F4F0D
:10085000C7010E948F0F81112DC089E1809FF00197
:10086000819FF00D1124EE58FF4F4080518062802F
:100870007380A3019201C501B4010E947A0D18167C
:10088000CCF0A5019401C301B2010E940D0D29E134
:10089000209FF001219FF00D1124EE58FF4F60833F
:1008A000718382839383F601608371838283938350
:1008B00080E005C0CF5FCA3008F4C0CF84E0CF919C
:1008C0001F910F91FF90EF90DF90CF90BF90AF906E
:1008D0009F908F907F906F905F904F900895EF92D0
:1008E000FF920F931F93CF93DF93EC018B017A015B
:1008F0000E94BB03813089F0CE010E94D603823072
:1009000061F0C8010E94B103833039F0A701B8013A
:10091000CE010E940604843001F0DF91CF911F9137
:100920000F91FF90EF900895803218F461E00E94DB
:100930007C0981E00895CF93DF93EC0161E0888129
:100940000E943C0960E088810E947C09DF91CF9180
:100950000895009731F0FC0180810E947C0980E0BD
:10096000089581E0089561E08DE00E943C0961E016
:100970008FE00E943C0961E08CE00E943C0961E04C
:100980008CE00E947C0960E08EE00E943C0962E0FD
:100990008AE00E94E6090E94010B08951F93CF93FD
:1009A000DF931F92CDB7DEB7182F60E08CE00E9476
:1009B0007C09BE016F5F7F4F812F0E94190B61E0A0
:1009C0008CE00E947C090F90DF91CF911F910895D8
:1009D000CF92DF92EF92FF920F931F93CF93DF930B
:1009E0001F92CDB7DEB76C01062F60E08CE00E944D
:1009F0007C09BE016F5F7F4F83E20E94190B10E0FC
:100A00007601E10EF11CB70183E20E94190B1F5F12
:100A1000F7018081833211F0101790F361E08CE0D0
:100A20000E947C090F90DF91CF911F910F91FF9051
:100A3000EF90DF90CF9008958F929F92AF92BF92E8
:100A4000CF92DF92EF92FF920F931F93CF93DF939A
:100A500000D0CDB7DEB76B017C01423059F49B0169
:100A6000AC0160E472E48FE090E00E943F0F6B0104
:100A70007C010DC0413049F4A8EEB3E09B01AC010C
:100A80000E94710F6B017C0102C041116BC088E8AC
:100A9000C81683E1D806E104F104C8F088EAC81654
:100AA00081E6D806E104F104A0F088E4C81688EED7
:100AB000D80681E0E806F10470F080E2C81681EA09
:100AC000D80687E0E806F10440F414E007C011E01E
:100AD00005C012E003C013E001C015E0E12FF0E013
:100AE0003197EE0FFF1FE257FD4F608171817695C0
:100AF0006795769567957695679580E090E00E947A
:100B0000200E4B015C01C701B6010E94200EA50119
:100B100094010E947F0D0E94F10DF62E072F80E0B8
:100B20000E94680B8F2D81950E94990B812F0E9446
:100B3000810B10E011C0CE0101960E949B0BCE01EB
:100B400002960E94A90B8981811103C08A818111BB
:100B5000F2CF0E94A50B1F5F011768F70E948F0B51
:100B600080E001C081E00F900F90DF91CF911F9145
:100B70000F91FF90EF90DF90CF90BF90AF909F903C
:100B80008F90089580E00E94F70B84E00E94250C6E
:100B90000E94390C80E008950E94520C0E94410C82
:100BA00008950E944B0C0895009721F00E94CF0CED
:100BB00080E0089581E008950F931F93CF93C82F8D
:100BC0008A010E94E609811107C0B8018C2F0E949A
:100BD0006D0A811103C003C081E001C081E0CF91A3
:100BE0001F910F91089561E082E10E943C0961E04C
:100BF00083E10E943C0961E084E10E943C0960E0DD
:100C000085E10E943C0960E086E10E943C0960E0C9
:100C100087E10E943C090895CF93DF931F92CDB7DF
:100C2000DEB761E085E10E947C0961E086E10E9417
:100C30007C0961E087E10E947C0961E083E10E9418
:100C40007C0961E084E10E947C0960E082E10E940D
:100C50007C0981E08983BE016F5F7F4F85E10E943F
:100C6000BC098981882339F00BC0BE016F5F7F4FBB
:100C700085E10E94BC0989818823B9F381E02EC0F7
:100C800081E08983BE016F5F7F4F86E10E94BC09CE
:100C90008981882339F00BC0BE016F5F7F4F86E1E9
:100CA0000E94BC0989818823B9F382E017C081E0E2
:100CB0008983BE016F5F7F4F87E10E94BC098981F4
:100CC000882341F080E00AC0BE016F5F7F4F87E15B
:100CD0000E94BC0989818823B9F383E00F90DF91DA
:100CE000CF910895CF93DF931F92CDB7DEB761E028
:100CF00085E10E947C0961E086E10E947C0961E057
:100D000087E10E947C0961E082E10E947C0961E048
:100D100084E10E947C0960E083E10E947C0981E01B
:100D20008983BE016F5F7F4F85E10E94BC09898185
:100D3000882339F00BC0BE016F5F7F4F85E10E94B1
:100D4000BC0989818823B9F384E02EC081E08983BE
:100D5000BE016F5F7F4F86E10E94BC0989818823B5
:100D600039F00BC0BE016F5F7F4F86E10E94BC0966
:100D700089818823B9F385E017C081E08983BE01AA
:100D80006F5F7F4F87E10E94BC098981882341F012
:100D900080E00AC0BE016F5F7F4F87E10E94BC09FF
:100DA00089818823B9F386E00F90DF91CF91089570
:100DB000CF93DF931F92CDB7DEB761E085E10E944C
:100DC0007C0961E086E10E947C0961E087E10E9484
:100DD0007C0961E082E10E947C0961E083E10E947C
:100DE0007C0960E084E10E947C0981E08983BE0186
:100DF0006F5F7F4F85E10E94BC098981882339F0AC
:100E00000BC0BE016F5F7F4F85E10E94BC098981E5
:100E10008823B9F387E02EC081E08983BE016F5F2C
:100E20007F4F86E10E94BC098981882339F00BC07D
:100E3000BE016F5F7F4F86E10E94BC0989818823D4
:100E4000B9F388E017C081E08983BE016F5F7F4FEF
:100E500087E10E94BC098981882341F080E00AC0B3
:100E6000BE016F5F7F4F87E10E94BC0989818823A3
:100E7000B9F389E00F90DF91CF9108950E940C069D
:100E8000811106C00E947206811102C00E94D8061C
:100E900008951F93CF93DF93D82F60E082E00E94E4
:100EA0007C0960E081E00E947C091D2F12951F7073
:100EB000C0E011C0EC2FF0E0612F70E00C2E02C0FA
:100EC000759567950A94E2F76170EA58FE4F808144
:100ED0000E947C09CF5FC43068F361E083E00E9428
:100EE0007C0989EF90E00197F1F700C0000060E015
:100EF00083E00E947C0992E49A95F1F700C0DF70CC
:100F0000C0E011C0EC2FF0E06D2F70E00C2E02C09D
:100F1000759567950A94E2F76170EA58FE4F8081F3
:100F20000E947C09CF5FC43068F361E083E00E94D7
:100F30007C0989EF90E00197F1F700C0000060E0C4
:100F400083E00E947C0983EF91E00197F1F700C0F4
:100F50000000DF91CF911F910895CF93C0E009C0A9
:100F6000EC2FF0E0EA58FE4F61E080810E943C09DE
:100F7000CF5FC430A8F361E081E00E943C0961E0EA
:100F800082E00E943C0961E083E00E943C098FE01E
:100F900097E20197F1F700C0000082E00E94490744
:100FA00089EF90E00197F1F700C0000088E20E940D
:100FB000490789EF90E00197F1F700C0000081E058
:100FC0000E94490787EE93E00197F1F700C0000007
:100FD00086E00E94490789EF90E00197F1F700C091
:100FE00000008EE00E94490789EF90E00197F1F739
:100FF00000C00000CF9108951F93CF93DF93D82FA7
:1010000060E082E00E947C0961E081E00E947C094E
:101010001D2F12951F70C0E011C0EC2FF0E0612F62
:1010200070E00C2E02C0759567950A94E2F7617026
:10103000EA58FE4F80810E947C09CF5FC43068F37C
:1010400061E083E00E947C0989EF90E00197F1F76D
:1010500000C0000060E083E00E947C0992E49A9561
:10106000F1F700C0DF70C0E011C0EC2FF0E06D2F91
:1010700070E00C2E02C0759567950A94E2F76170D6
:10108000EA58FE4F80810E947C09CF5FC43068F32C
:1010900061E083E00E947C0989EF90E00197F1F71D
:1010A00000C0000060E083E00E947C0983EF91E0D3
:1010B0000197F1F700C00000DF91CF911F910895D3
:1010C00081E00E94490787EE93E00197F1F700C0A5
:1010D000000082E00E94490787EE93E00197F1F754
:1010E00000C000000895811108C0603130F4862FDF
:1010F0008F7080680E9449070895813039F460310B
:1011000028F4862F8F70806C0E94490708950F93F2
:101110001F93CF93DF938C01FC018081C0E0D0E06E
:1011200007C00E94FC072196F801EC0FFD1F80818B
:101130008111F7CFDF91CF911F910F9108958F9279
:101140009F92AF92BF92CF92DF92EF92FF921F9346
:10115000CF93DF93CDB7DEB72C970FB6F894DEBFF1
:101160000FBECDBF4B015C010E94F10D6B01E12C64
:10117000F12CC701B6010E94200E9B01AC01C501F4
:10118000B4010E940D0D20E030E048EC52E40E94D2
:10119000D20E0E94F10D8DEC689F812D1124869551
:1011A00086958695282F220F922F990F990F920FCF
:1011B000691B605D6983805D8A838EE28B8313E0A7
:1011C00015C0C701B6012AE030E040E050E00E94BF
:1011D0004F0FE1E0F0E0EC0FFD1FE10FF11D605D4E
:1011E0006083C22ED32EE42EF52E1F5FC114D104CE
:1011F000E104F10431F7412F50E0E1E0F0E0EC0FC1
:10120000FD1FE40FF51F108280E017C0282F30E08B
:10121000A1E0B0E0AC0FBD1FA20FB31F9C91FA017B
:10122000E21BF30B319721E030E02C0F3D1FE20F62
:10123000F31F20812C9390838F5F912F96958917B0
:1012400028F3CE0101960E9487082C960FB6F894D9
:10125000DEBF0FBECDBFDF91CF911F91FF90EF900A
:10126000DF90CF90BF90AF909F908F9008950E9495
:1012700070000E949000FDCF8032C0F56230C0F552
:10128000E82FE695E695E6958770611117C0F0E0C6
:10129000EE0FFF1FEE57FE4F0190F081E02D4081D1
:1012A00021E030E0B90102C0660F771F8A95E2F7AE
:1012B000CB0180958423808380E008956130D1F450
:1012C000F0E0EE0FFF1FEE57FE4F0190F081E02D92
:1012D000408121E030E0B90102C0660F771F8A9596
:1012E000E2F7CB01842B808380E008958FEF08958F
:1012F0008FEF089580E008958032C0F56230C0F528
:10130000E82FE695E695E6958770611117C0F0E045
:10131000EE0FFF1FE657FE4F0190F081E02D408158
:1013200021E030E0B90102C0660F771F8A95E2F72D
:10133000CB0180958423808380E008956130D1F4CF
:10134000F0E0EE0FFF1FE657FE4F0190F081E02D19
:10135000408121E030E0B90102C0660F771F8A9515
:10136000E2F7CB01842B808380E008958FEF08950E
:101370008FEF089580E008958032D8F4E82FE69545
:10138000E695E6958770F0E0EE0FFF1FE658FE4FFA
:101390000190F081E02D208130E0A90102C0559537
:1013A00047958A95E2F7CA018170FB01808380E04E
:1013B00008958FEF0895813019F4789480E00895AE
:1013C000811102C0F894089581E00895CF93DF93CE
:1013D000C82FD62F81E00E94DB09C13099F120F09F
:1013E000C23009F45DC072C0D11107C085B78E7FCD
:1013F00085BF85B78D7F85BF20C0D13039F485B7D3
:101400008E7F85BF85B7826085BF17C0D23039F423
:1014100085B7816085BF85B7826085BF0EC0D33038
:1014200039F485B7816085BF85B78D7F85BF05C0DD
:1014300080E00E94DB0981E04DC08BB780648BBFE8
:1014400080E048C0D11107C085B78B7F85BF85B7C5
:10145000877F85BF20C0D13039F485B78B7F85BFAA
:1014600085B7886085BF17C0D23039F485B78460EE
:1014700085BF85B7886085BF0EC0D33039F485B786
:10148000846085BF85B7877F85BF05C080E00E94E7
:10149000DB0981E01FC08BB780688BBF80E01AC07A
:1014A000D13021F484B78F7B84BF0BC0D23021F4BC
:1014B00084B7806484BF05C080E00E94DB0981E0BE
:1014C00009C08BB780628BBF80E004C080E00E94BF
:1014D000DB0981E0DF91CF910895811105C0709300
:1014E000B1026093B0020895813031F47093AF027D
:1014F0006093AE0280E00895823031F47093AD02C3
:101500006093AC0280E0089581E008951F920F92ED
:101510000FB60F9211242F933F934F935F936F93C6
:101520007F938F939F93AF93BF93EF93FF93E0913C
:10153000B002F091B102309709F00995FF91EF9157
:10154000BF91AF919F918F917F916F915F914F91DB
:101550003F912F910F900FBE0F901F9018951F92E3
:101560000F920FB60F9211242F933F934F935F93D7
:101570006F937F938F939F93AF93BF93EF93FF935B
:10158000E091AE02F091AF02309709F00995FF911A
:10159000EF91BF91AF919F918F917F916F915F91EB
:1015A0004F913F912F910F900FBE0F901F90189564
:1015B0001F920F920FB60F9211242F933F934F93C8
:1015C0005F936F937F938F939F93AF93BF93EF93AB
:1015D000FF93E091AC02F091AD02309709F00995CC
:1015E000FF91EF91BF91AF919F918F917F916F91FB
:1015F0005F914F913F912F910F900FBE0F901F90D1
:1016000018958DB180618DB98DB19EB18E7F9C7F13
:101610009EB98DB98DB19EB193609EB98DB98DB1D2
:10162000877F8DB98DB18B7F8DB98DB180648DB978
:10163000089561157105F9F08FB980E090E0DC0143
:1016400003C00196A11DB11D779907C0803A26E815
:10165000920721E0A207B105A0F3803A9648A14085
:10166000B10559F08FB1FB018083F1E2FA95F1F7F2
:10167000000080E0089581E0089581E008951F92C0
:101680000F920FB60F9211242F933F934F935F93B6
:101690006F937F938F939F93AF93BF93EF93FF933A
:1016A000E091B202F091B302309709F00995FF91F1
:1016B000EF91BF91AF919F918F917F916F915F91CA
:1016C0004F913F912F910F900FBE0F901F90189543
:1016D000813061F028F0823029F0833029F00FC08A
:1016E00020E005C028E003C028E401C020E493B74F
:1016F000977B93BF83B7822B83BF80E0089581E0FF
:1017000008959FEF980F973040F493B7987F93BF59
:1017100093B7892B83BF80E0089581E0089583B754
:10172000887F83BF12BE88B78E7F88BF1092B602B3
:10173000089582BF0895FC01892B29F098B7917014
:10174000908380E0089581E0089588B7816088BF24
:101750000895009761F003B600FE05C021E0FC018A
:10176000208380E00895FC01108280E0089581E0EC
:1017700008951F920F920FB60F9211242F933F934B
:101780004F935F936F937F938F939F93AF93BF9389
:10179000EF93FF938091B4029091B502892BB1F041
:1017A0008091B6029091B70289130DC00E948F0BF1
:1017B0001092B60289B78E7F89BFE091B402F09192
:1017C000B502099503C08F5F8093B602FF91EF9138
:1017D000BF91AF919F918F917F916F915F914F9149
:1017E0003F912F910F900FBE0F901F90189584304E
:1017F00040F5813071F028F0823099F08330C9F0E3
:1018000022C085B5877F85BD85B58F7B85BD80E08E
:10181000089585B5877F85BD85B5806485BD80E0E9
:10182000089585B5886085BD85B58F7B85BD80E0D1
:10183000089585B5886085BD85B5806485BD80E0E7
:10184000089581E0089581E00895883070F48093D0
:10185000BF029091BE02913051F495B5987F892BCB
:1018600095B5892B85BD80E0089581E0089580E0DD
:10187000089589B7806489BF8FB780688FBF80E083
:10188000089595B58091BF02892B85BD81E0809335
:10189000BE0280E0089585B5887F85BD1092BE02A6
:1018A00080E008958F929F92AF92BF92CF92DF9285
:1018B000EF92FF92683823E172078105910508F0E5
:1018C00060C06B017C01E091BF02F0E0EE0FFF1FF2
:1018D000E856FD4F6081718180E090E00E94200E0B
:1018E00020E030E04AEF55E40E947F0D4B015C019F
:1018F000C701B6010E94200EA50194010E947F0D30
:101900000E94F10D611521E072078105910529F40E
:1019100081E08093BD0280E039C06F3F7105810591
:10192000910509F078F420E031E0C901861B970B9E
:101930009093BC028093BB0284BD81E08093BD0282
:1019400080E024C0613021E0720781059105D8F064
:101950007093BD02772780E091E0861B970B9093F0
:10196000BC028093BB0284BD8091BB029091BC02FB
:10197000892B59F08091BD028F5F8093BD0280E07A
:1019800005C081E003C080E001C080E0FF90EF90DF
:10199000DF90CF90BF90AF909F908F900895009769
:1019A00021F09093BA028093B90208951F920F928A
:1019B0000FB60F9211242F933F934F935F936F9322
:1019C0007F938F939F93AF93BF93EF93FF938091F8
:1019D000B8028F5F8093B8029091BD0289130CC04A
:1019E000E091B902F091BA02309731F01092B8024A
:1019F00009958091BB0284BDFF91EF91BF91AF919A
:101A00009F918F917F916F915F914F913F912F9116
:101A10000F900FBE0F901F9018955058BB27AA2704
:101A20000E94250D0C94980E0E948A0E38F00E9498
:101A3000910E20F039F49F3F19F426F40C94870E90
:101A40000EF4E095E7FB0C94810EE92F0E94A90E9D
:101A500058F3BA17620773078407950720F079F4E3
:101A6000A6F50C94CB0E0EF4E0950B2EBA2FA02DFC
:101A70000B01B90190010C01CA01A0011124FF273B
:101A8000591B99F0593F50F4503E68F11A16F04036
:101A9000A22F232F342F4427585FF3CF4695379535
:101AA0002795A795F0405395C9F77EF41F16BA0BFA
:101AB000620B730B840BBAF09150A1F0FF0FBB1FA8
:101AC000661F771F881FC2F70EC0BA0F621F731FF1
:101AD000841F48F4879577956795B795F7959E3F4E
:101AE00008F0B0CF9395880F08F09927EE0F9795DF
:101AF000879508950E945D0E08F481E008950E9484
:101B0000930D0C94980E0E94910E58F00E948A0E2C
:101B100040F029F45F3F29F00C94810E51110C9490
:101B2000CC0E0C94870E0E94A90E68F39923B1F392
:101B3000552391F3951B550BBB27AA2762177307F3
:101B4000840738F09F5F5F4F220F331F441FAA1F87
:101B5000A9F335D00E2E3AF0E0E832D09150504043
:101B6000E695001CCAF72BD0FE2F29D0660F771FF1
:101B7000881FBB1F261737074807AB07B0E809F0D7
:101B8000BB0B802DBF01FF2793585F4F3AF09E3F5C
:101B9000510578F00C94810E0C94CC0E5F3FE4F369
:101BA000983ED4F3869577956795B795F7959F5F9F
:101BB000C9F7880F911D9695879597F90895E1E0EB
:101BC000660F771F881FBB1F621773078407BA074A
:101BD00020F0621B730B840BBA0BEE1F88F7E095A5
:101BE00008950E94B10E88F09F5798F0B92F992759
:101BF000B751B0F0E1F0660F771F881F991F1AF0F8
:101C0000BA95C9F714C0B13091F00E94CB0EB1E083
:101C100008950C94CB0E672F782F8827B85F39F082
:101C2000B93FCCF3869577956795B395D9F73EF490
:101C300090958095709561957F4F8F4F9F4F089538
:101C4000E89409C097FB3EF4909580957095619556
:101C50007F4F8F4F9F4F9923A9F0F92F96E9BB270C
:101C60009395F695879577956795B795F111F8CF88
:101C7000FAF4BB0F11F460FF1BC06F5F7F4F8F4FF3
:101C80009F4F16C0882311F096E911C0772321F0E9
:101C90009EE8872F762F05C0662371F096E8862F81
:101CA00070E060E02AF09A95660F771F881FDAF7D8
:101CB000880F9695879597F90895990F0008550F05
:101CC000AA0BE0E8FEEF16161706E807F907C0F0C2
:101CD00012161306E407F50798F0621B730B840BCA
:101CE000950B39F40A2661F0232B242B252B21F4A4
:101CF00008950A2609F4A140A6958FEF811D811D44
:101D0000089597F99F6780E870E060E008959FEF7D
:101D100080EC089500240A94161617061806090682
:101D2000089500240A941216130614060506089551
:101D3000092E0394000C11F4882352F0BB0F40F4D9
:101D4000BF2B11F460FF04C06F5F7F4F8F4F9F4F19
:101D5000089557FD9058440F551F59F05F3F71F09B
:101D60004795880F97FB991F61F09F3F79F0879502
:101D70000895121613061406551FF2CF4695F1DF8B
:101D800008C0161617061806991FF1CF869571051B
:101D9000610508940895E894BB2766277727CB014F
:101DA00097F908950E94E50E0C94980E0E948A0EF1
:101DB00038F00E94910E20F0952311F00C94810EC2
:101DC0000C94870E11240C94CC0E0E94A90E70F373
:101DD000959FC1F3950F50E0551F629FF001729FD0
:101DE000BB27F00DB11D639FAA27F00DB11DAA1FDF
:101DF000649F6627B00DA11D661F829F2227B00D2C
:101E0000A11D621F739FB00DA11D621F839FA00DB6
:101E1000611D221F749F3327A00D611D231F849F06
:101E2000600D211D822F762F6A2F11249F5750405D
:101E30009AF0F1F088234AF0EE0FFF1FBB1F661FD8
:101E4000771F881F91505040A9F79E3F510580F0A1
:101E50000C94810E0C94CC0E5F3FE4F3983ED4F3C7
:101E6000869577956795B795F795E7959F5FC1F745
:101E7000FE2B880F911D9695879597F90895DB01A4
:101E80008F939F930E94710FBF91AF91A29F800D7E
:101E9000911DA39F900DB29F900D11240895A1E272
:101EA0001A2EAA1BBB1BFD010DC0AA1FBB1FEE1FD4
:101EB000FF1FA217B307E407F50720F0A21BB30B1F
:101EC000E40BF50B661F771F881F991F1A9469F79B
:101ED00060957095809590959B01AC01BD01CF01F7
:101EE00008950E947C0FA59F900DB49F900DA49F14
:101EF000800D911D11240895A29FB001B39FC001D0
:101F0000A39F700D811D1124911DB29F700D811D25
:101F10001124911D0895662777270C949F0FFB01CC
:101F2000DC018D91019080190110D9F3990B08956E
:101F3000FB01DC0101900D920020E1F70895A0E083
:101F4000B0E0E5EAFFE00C941711EC016B016115BC
:101F5000710519F0FB01918380837E01FFEFEF1A79
:101F6000FF0A0881802F90E00E94ED10892B11F06C
:101F7000E701F3CF0D3239F47E0182E0E80EF11C67
:101F8000098111E008C00B3229F47E0192E0E90ECC
:101F9000F11C098110E0E701219743E050E06CE576
:101FA00070E0CE010E94F610892BC1F4239645E023
:101FB00050E067E570E0CE010E94F610892B09F42D
:101FC0002596C114D10419F0F601D183C0831111F3
:101FD000F6C060E070E080E89FE7FAC043E050E0C0
:101FE00064E570E0CE010E94F610892B59F4C1140B
:101FF000D10409F4E9C0F2E0EF0EF11CF601F18220
:10200000E082E2C020E030E0A901C0E0D0E0F701CA
:1020100080EDA82EA00E89E08A1530F1912F9260F4
:10202000B92E812F887012FF04C0811124C021961F
:1020300022C081112197A5E0B0E00E94710FDC0160
:10204000CB01880F991FAA1FBB1F9C01AD012A0D50
:10205000311D411D511D283989E93807480789E19B
:10206000580748F0166006C09EEFA9120AC013FD7B
:1020700040C01860B12E8FEFE81AF80A00811B2DBE
:10208000C6CF802F8F7D8534A1F580818D3211F4EC
:10209000106106C08B3221F0319661E070E004C01F
:1020A0008181329662E070E080538A3018F0E61B3E
:1020B000F70B1FC060E070E060389CE079075CF4CB
:1020C000DB01AA0FBB1FAA0FBB1F6A0F7B1F660F86
:1020D000771F680F711D3196DF0111978C91805326
:1020E0008A3050F314FF03C0719561957109C60FD2
:1020F000D71F11FF08C0C114D10429F0CF010197E7
:10210000F60191838083CA01B9010E94200E212F1C
:102110002370233019F04B015C0106C04B015C01B8
:10212000B7FAB094B7F8B09420E030E0A901C50147
:10213000B4010E947A0D882309F43EC0D7FF06C07F
:10214000D195C195D10903E710E002C00BE810E07A
:102150006801F8E1CF1AD10890E2E92EF12CCE15F2
:10216000DF0574F0F8012591359145915491C50131
:10217000B4010E94D20E4B015C01CE19DF09EFCFF2
:1021800004501109F594E7940C151D0541F78A2DAB
:10219000880F8B2D881F8F3F49F020E030E0A90188
:1021A000C501B4010E947A0D811106C082E290E05F
:1021B0009093E0028093DF02C501B40109C060E0A2
:1021C00070E080E89FEF04C060E070E080EC9FE783
:1021D000CDB7DEB7ECE00C94331191110C940E11D5
:1021E000803219F089508550C8F70895FB01DC0151
:1021F0004150504088F08D9181341CF08B350CF4A7
:10220000805E659161341CF06B350CF4605E861B5A
:10221000611171F3990B0895881BFCCF99278827CA
:1022200008952F923F924F925F926F927F928F927A
:102230009F92AF92BF92CF92DF92EF92FF920F9355
:102240001F93CF93DF93CDB7DEB7CA1BDB0B0FB65F
:10225000F894DEBF0FBECDBF09942A88398848881C
:102260005F846E847D848C849B84AA84B984C884B2
:10227000DF80EE80FD800C811B81AA81B981CE0FA9
:10228000D11D0FB6F894DEBF0FBECDBFED0108958E
:04229000F894FFCFF0
:1022940001303030302E303000303030302E30309D
:1022A400000200606A460132323234313232343153
:1022B400323234313232340000000000FE5847011B
:1022C40034333134343331343433313434333134DA
:1022D400340000000000FA4400313233343536371C
:1022E4003839313233343536373839340000C82F71
:1022F40047003434313731323334353637383931B5
:1023040031330000000000409C450131313131314E
:10231400313131313131313131313131313100000B
:1023240000000000000000000000000000000000A9
:102334000000000000000000000000000000000099
:102344000000000000000000000000000000000089
:102354000000000000000000000000000000000079
:102364000000000000000000000000000000000069
:102374000000000000000000000000000000000059
:102384000000000000000000000000000000000049
:102394000000000000000000000000000B31323398
:1023A400343536373839040506073900360033002A
:1023B40030003A003700340031003B00380035006B
:1023C40032004C4F434B4544005468697320697391
:1023D4002061004672617564204361726400546830
:1023E40069732043617264200069732053746F6CB5
:1023F400656E004D6178204C696D697420006973C5
:1024040020457863656564656400494E53554646C6
:10241400494349454E54200046554E440057656C87
:10242400636F6D6520546F2041746D00496E736550
:10243400727420596F757220436172640041707028
:10244400726F766564005472616E73616374696F50
:102454006E0052656D61696E696E670042616C6100
:102464006E6365202000456A656374696E67204366
:1024740061726400456E74657220596F75722070C4
:10248400696E0053686F72742050696E0050494E33
:102494005F4D4154434845440050494E5F4E4F54AC
:1024A4005F4D41544348454400454E5445522061D4
:1024B4006D6F756E7400353030302E303000010091
:1024C4000800400009010004000001000800400069
:0424D40000010004FF
:00000001FF
