S0100000434152445F4D43552E73726563B6
S11300000C942A000C9447000C9447000C9447006D
S11300100C9447000C9447000C9447000C94470040
S11300200C9447000C9447000C9447000C94470030
S11300300C94A3030C9447000C9447000C944700C1
S11300400C9447000C9447000C9447000C94470010
S11300500C94470011241FBECFE5D8E0DEBFCDBF0E
S113006011E0A0E6B0E0E8E7F8E002C005900D92E8
S1130070A63DB107D9F722E0A6EDB1E001C01D927B
S1130080A930B207E1F70E94B1020C943A040C942F
S113009000000E9497020E9455020E94E801789491
S11300A008958091D601823009F44BC028F4882346
S11300B051F08130C9F10895833009F456C0843079
S11300C009F466C0089580E291E00E94EB018093F8
S11300D003028F3F21F481E08093D601089580E7E5
S11300E090E00E94AB0284E092E00E94A1028111A0
S11300F0FACF809104020E949C0284EB90E00E945B
S1130100AB0280910402813321F483E08093D60111
S11301100895823321F481E08093D601089587EB1A
S113012090E00E94AB02089587ED91E00E940F01D8
S113013080930502813009F047C082E08093D601A4
S113014008958BEE91E00E949701813051F46BEE9B
S113015071E087ED91E00E94390183E08093D6013C
S1130160089582E08093D601089588EC90E00E947F
S1130170AB026BEE71E087ED91E00E94710165E0E6
S11301808BEE91E00E94830284E08093D60108956F
S113019080910602803541F41092060265E08BEEF0
S11301A091E00E948E020895873441F41092060271
S11301B064E187ED91E00E948E020895853421F474
S11301C0109206021092D60108950F931F93CF93B5
S11301D08C0165E00E94AE02C0E00CC080538A30FE
S11301E010F4CF5F07C081EF90E00E94AB0291E072
S11301F080E008C0F801EC0FF11D80818111EECF81
S113020090E081E0C43038F4911105C08FEF90E0A4
S11302100E94AB0280E0CF911F910F910895CF937C
S1130220DF93EC018DE091E00E94AB0264E1CE012A
S11302300E94AE0290E00BC080538A3010F49F5F9E
S113024006C081E291E00E94AB0280E00FC0FE0193
S1130250E90FF11D80818111EFCF903130F482E5F7
S113026091E00E94AB0280E001C081E0DF91CF9178
S11302700895CF93DF93009771F16115710569F1CA
S1130280EB01BC018FE493EC0197F1F700C000008F
S113029080E690E00E9408028FE493EC0197F1F766
S11302A000C00000BE0180E090E00E9408028FE4DC
S11302B093EC0197F1F700C000006AE871E080E276
S11302C091E00E9408028FE493EC0197F1F700C0DB
S11302D0000080E003C081E001C081E0DF91CF91A4
S11302E00895CF93DF930097E1F061157105D9F07C
S11302F0EB01BC0180E690E00E9435028FE493ECB0
S11303000197F1F700C00000BE0180E090E00E9478
S113031035028FE493EC0197F1F700C0000082E00E
S113032003C083E001C083E0DF91CF910895EF9291
S1130330FF921F93CF93DF9300D000D01F92CDB7CD
S1130340DEB77C018CE891E00E94AB02C7010E94F9
S1130350E500182F882371F180EA91E00E94AB0236
S1130360CE0101960E94E500113031F58130C9F0CB
S113037080E023C0822F90E0F701E80FF91F30815D
S1130380E1E0F0E0EC0FFD1FE80FF91F8081381762
S113039031F086EB91E00E94AB0280E00EC02F5F4B
S11303A001C020E0253030F388EC91E00E94AB02DC
S11303B081E003C080E001C080E00F900F900F90B7
S11303C00F900F90DF91CF911F91FF90EF900895C0
S11303D00E9436030895CF93DF93C82FD92F0E942C
S11303E0440380E50E9458038D2F0E9476038C2FCE
S11303F00E9476030E944E0380E50E9467030E94D8
S11304008803C82F0E9485038C2FDF91CF91089514
S11304100F931F93CF93DF93C82FD92F8B010E9483
S1130420440380E50E9458038D2F0E9476038C2F8D
S11304300E947603C0E003C0CF5F0E947603F801F8
S1130440EC0FF11D80818111F7CF83ED90E30197CB
S1130450F1F700C0000080E00E9476030E9485034B
S1130460DF91CF911F910F910895CF92DF92EF9278
S1130470FF920F931F93CF936B01C0E07601EC0EB4
S1130480F11C8C010F5F1F4F0E94EB01282FF70115
S11304908083CF5FC8012111F1CFCF911F910F91BC
S11304A0FF90EF90DF90CF90089560E08DE00E9480
S11304B0B60260E08FE00E94B60260E08CE00E9429
S11304C0B60261E08CE00E94F60261E08EE00E94D8
S11304D0B60261E088E00E94B6020E94930361E0E4
S11304E08CE00E94F602089561E088E00E94F60222
S11304F083EC99E00197F1F700C0000060E088E028
S11305000E94F602089510920202909300028093D2
S1130510FF01609308020E9474020895109202027F
S1130520909300028093FF016093080208950E9453
S1130530EE03811181E008950E94FA03811181E0A4
S11305400895CF93DF93EC010E94FF03888380E03A
S1130550DF91CF9108950E94030408950E94160428
S113056008950E9449000E945100FDCF8032C0F5D9
S11305706230C0F5E82FE695E695E695877061113F
S113058017C0F0E0EE0FFF1FE05AFF4F0190F0811B
S1130590E02D408121E030E0B90102C0660F771FF1
S11305A08A95E2F7CB0180958423808380E00895C7
S11305B06130D1F4F0E0EE0FFF1FE05AFF4F0190DD
S11305C0F081E02D408121E030E0B90102C0660FE6
S11305D0771F8A95E2F7CB01842B808380E008950E
S11305E08FEF08958FEF089580E008958032C0F56D
S11305F06230C0F5E82FE695E695E69587706111BF
S113060017C0F0E0EE0FFF1FE859FF4F0190F08193
S1130610E02D408121E030E0B90102C0660F771F70
S11306208A95E2F7CB0180958423808380E0089546
S11306306130D1F4F0E0EE0FFF1FE859FF4F019055
S1130640F081E02D408121E030E0B90102C0660F65
S1130650771F8A95E2F7CB01842B808380E008958D
S11306608FEF08958FEF089580E0089581B18E7F14
S113067081B981B18D7F81B982E080B980EA82B984
S113068086B7846086BF089584EA86BF06B607FEEF
S1130690FDCF81B1887F8830E1F7089584EA86BF71
S11306A006B607FEFDCF81B1887F8031E1F708955A
S11306B0880F83B983B18E7F83B984E886BF06B679
S11306C007FEFDCF81B1887F8831E1F70895880F57
S11306D083B983B1816083B984E886BF06B607FE17
S11306E0FDCF81B1887F8034E1F7089583B986B75F
S11306F0806886BF86B7846086BF06B607FEFDCFD6
S113070081B1887F8832E1F7089584E986BF08952E
S113071086B7806886BF86B7846086BF06B607FE44
S1130720FDCF83B108958DB18F7E8DB98DB1877F53
S11307308DB98DB18B7F8DB98DB180688DB98DB137
S113074080648DB908951F920F920FB60F921124F1
S11307502F933F938F939F93EF93FF938FB1809346
S11307600602909101029F3011F41092010283322B
S113077059F090910102E92FF0E0E051FE4F80839F
S11307809F5F9093010204C080910102809307024D
S11307908091020290910802891788F42091FF0148
S11307A0309100022115310551F091E0980F90939A
S11307B00202F901E80FF11D80818FB904C0891785
S11307C010F083E28FB9FF91EF919F918F913F9148
S11307D02F910F900FBE0F901F9018958AB18B7FA9
S11307E09BB19D7F9BB988618AB983E389B910BCA9
S11307F080E008955D9BFECF8CB980E008955F9BF7
S1130800FECF8CB108950F931F93CF938C01C0E05A
S113081003C00E94FA03CF5FF801EC0FF11D808141
S11308208111F7CFCF911F910F9108950F931F93CB
S1130830CF93DF938C01D62FC0E00BC00E94FF033F
S1130840F801EC0FF11D80838D3059F00E94FA03FA
S1130850CF5F2C2F30E08D2F90E0019728173907B8
S11308606CF3F801EC0FF11D1082DF91CF911F9111
S10B08700F910895F894FFCFE5
S11308783A003700340031003B00380035003200BC
S11308880A0D506C6561736520707265737320314D
S113089820666F7220656E746572696E6720757361
S11308A86572206D6F646520616E64203220666F06
S11308B8722070726F6772616D6D696E67206D6FFB
S11308C864653A000A0D00496E76616C69642043D8
S11308D8686F6963652C20000A0D2D2D2D2D2D2D93
S11308E82D2D2D2D2D2D2D2055736572204D6F64C2
S11308F865202D2D2D2D2D2D2D2D2D2D2D2D2D0A14
S1130908000D4E6F74206E756D6572696320000D5D
S113091862656C6F7720342064696720000A0D458E
S11309286E74657220436172642050616E203A20AF
S1130938000A0D496E76616C69642050616E204E20
S1130948756D626572202D206D75737420636F6EEA
S11309587461696E204E756D62657273206F6E6C7A
S113096879000A0D496E76616C69642050616E20C5
S11309784E756D626572202D206D75737420636FDA
S11309886E7461696E206174206C656173742031C2
S113099836206E756D626572730031000A0D456EFE
S11309A874657220796F75722050494E203A200080
S11309B80A0D436F6E6669726D20596F7572205007
S11309C8494E203A20000A0D50696E204E6F74205B
S11309D84D617463686564000A0D50696E204D6149
S10909E8746368656400FD
S9030000FC
