S0100000434152445F4D43552E73726563B6
S11300000C942A000C9447000C9447000C9447006D
S11300100C9447000C9447000C9447000C94470040
S11300200C9447000C9447000C9447000C94470030
S11300300C94BE030C9447000C9447000C944700A6
S11300400C9447000C9447000C9447000C94470010
S11300500C94470011241FBECFE5D8E0DEBFCDBF0E
S113006011E0A0E6B0E0EEEAF8E002C005900D92DF
S1130070A43DB107D9F722E0A4EDB1E001C01D927F
S1130080A730B207E1F70E94CC020C9455040C94FB
S113009000000E94B2020E9470020E94E50178945E
S11300A008958091D401823009F44AC028F4882349
S11300B051F08130C1F10895833009F453C0843084
S11300C009F463C0089580E291E00E9402028093E3
S11300D001028F3F21F481E08093D401089580E7E9
S11300E090E00E94C60282E092E00E94BC0281116C
S11300F0FACF809102020E94B7028DE00E94B702FB
S113010080910202813321F483E08093D401089525
S1130110823321F481E08093D401089584EB90E04C
S11301200E94C602089585ED91E00E940C0180931F
S11301300302813009F045C082E08093D401089520
S11301400E949401813051F469EE71E085ED91E0F3
S11301500E94360183E08093D401089582E0809365
S1130160D401089585EC90E00E94C60269EE71E026
S113017085ED91E00E946E0165E089EE91E00E94B8
S11301809E0284E08093D401089580910402803516
S113019041F41092040265E089EE91E00E94A90204
S11301A00895873441F41092040264E185ED91E0EE
S11301B00E94A9020895853421F410920402109239
S11301C0D40108950F931F93CF938C0165E00E948F
S11301D0C902C0E00CC080538A3010F4CF5F07C05E
S11301E08EEE90E00E94C60291E080E008C0F80123
S11301F0EC0FF11D80818111EECF90E081E0C430DD
S113020038F4911105C08CEF90E00E94C60280E0A2
S1130210CF911F910F910895CF93DF93EC018AE062
S113022091E00E94C60264E1CE010E94C90290E0FE
S11302300BC080538A3010F49F5F06C08EE191E0BA
S11302400E94C60280E00FC0FE01E90FF11D80810B
S11302508111EFCF903130F48FE491E00E94C60217
S113026080E001C081E0DF91CF910895CF93DF93C7
S1130270009771F16115710569F1EB01BC018FE41F
S113028093EC0197F1F700C0000080E690E00E9433
S11302901F028FE493EC0197F1F700C00000BE0148
S11302A080E090E00E941F028FE493EC0197F1F745
S11302B000C0000067E871E080E291E00E941F0244
S11302C08FE493EC0197F1F700C0000080E003C0D5
S11302D081E001C081E0DF91CF910895CF93DF9356
S11302E00097E1F061157105D9F0EB01BC0180E6DE
S11302F090E00E944A028FE493EC0197F1F700C06A
S11303000000BE0180E090E00E944A028FE493EC7A
S11303100197F1F700C0000082E003C083E001C050
S113032083E0DF91CF9108951F93CF93DF93CDB7EF
S1130330DEB72A970FB6F894DEBF0FBECDBF89E8AB
S113034091E00E94C60289EE91E00E94E200182F1B
S1130350882371F18DE991E00E94C602CE010196D5
S11303600E94E200113031F58130C9F080E023C0F1
S1130370822F90E0FC01E751FE4F3081E1E0F0E094
S1130380EC0FFD1FE80FF91F8081381731F083EB64
S113039091E00E94C60280E00EC02F5F01C020E001
S11303A0253030F385EC91E00E94C60281E003C061
S11303B080E001C080E02A960FB6F894DEBF0FBE3D
S11303C0CDBFDF91CF911F9108950E9451030895ED
S11303D01F93CF93DF93D82F192FC62F0E945F034B
S11303E080E50E947303812F0E9491038D2F0E9448
S11303F091038C2F0E9491030E94A003DF91CF915F
S11304001F910895CF93DF93C82FD92F0E945F03C4
S113041080E50E9473038D2F0E9491038C2F0E940C
S113042091030E94690380E50E9482030E94A30352
S1130430C82F0E94A0038C2FDF91CF910895EF92D3
S1130440FF920F931F93CF937B01C0E00EC0A3EDE7
S1130450B0E31197F1F700C00000CF5F8C010F5F8C
S11304601F4F60810E94E801C801F701EC0FF11DE4
S113047020812111ECCFE3EDF0E33197F1F700C0D7
S1130480000060E00E94E801CF911F910F91FF905E
S1130490EF900895CF92DF92EF92FF920F931F9304
S11304A0CF936B01C0E0E3EDF0E33197F1F700C0C7
S11304B000007601EC0EF11C8C010F5F1F4F0E94AF
S11304C00202282FF7018083CF5FC8012111EBCFEF
S11304D0CF911F910F91FF90EF90DF90CF900895EF
S11304E060E08DE00E94D10260E08FE00E94D102C2
S11304F060E08CE00E94D10261E08CE00E94110374
S113050061E08EE00E94D10261E088E00E94D102A5
S11305100E94AE0361E08CE00E941103089561E043
S113052088E00E94110383EC99E00197F1F700C081
S1130530000060E088E00E94110308951092000218
S11305409093FE018093FD01609306020E948F0246
S11305500895109200029093FE018093FD01609330
S1130560060208950E940904811181E008950E9401
S11305701504811181E00895CF93DF93EC010E946B
S11305801A04888380E0DF91CF9108950E941E04AD
S113059008950E94310408950E9449000E94510068
S11305A0FDCF8032C0F56230C0F5E82FE695E695C0
S11305B0E6958770611117C0F0E0EE0FFF1FE05A57
S11305C0FF4F0190F081E02D408121E030E0B9013E
S11305D002C0660F771F8A95E2F7CB0180958423CA
S11305E0808380E008956130D1F4F0E0EE0FFF1FC6
S11305F0E05AFF4F0190F081E02D408121E030E08E
S1130600B90102C0660F771F8A95E2F7CB01842BEC
S1130610808380E008958FEF08958FEF089580E040
S113062008958032C0F56230C0F5E82FE695E6956E
S1130630E6958770611117C0F0E0EE0FFF1FE859CF
S1130640FF4F0190F081E02D408121E030E0B901BD
S113065002C0660F771F8A95E2F7CB018095842349
S1130660808380E008956130D1F4F0E0EE0FFF1F45
S1130670E859FF4F0190F081E02D408121E030E006
S1130680B90102C0660F771F8A95E2F7CB01842B6C
S1130690808380E008958FEF08958FEF089580E0C0
S11306A0089581B18E7F81B981B18D7F81B982E056
S11306B080B980EA82B986B7846086BF089584EAE7
S11306C086BF06B607FEFDCF81B1887F8830E1F78B
S11306D0089584EA86BF06B607FEFDCF81B1887F00
S11306E08031E1F70895880F83B983B18E7F83B990
S11306F084E886BF06B607FEFDCF81B1887F8831C6
S1130700E1F70895880F83B983B1816083B984E8E0
S113071086BF06B607FEFDCF81B1887F8034E1F73E
S1130720089583B986B7806886BF86B7846086BF1C
S113073006B607FEFDCF81B1887F8832E1F70895C0
S113074084E986BF089586B7806886BF86B78460CB
S113075086BF06B607FEFDCF83B108958DB18F7EA7
S11307608DB98DB1877F8DB98DB18B7F8DB98DB1E9
S113077080688DB98DB180648DB908951F920F92F0
S11307800FB60F9211242F933F938F939F93EF9360
S1130790FF938FB1809304029091FF019F3011F475
S11307A01092FF01833259F09091FF01E92FF0E09C
S11307B0E251FE4F80839F5F9093FF0104C08091BC
S11307C0FF0180930502809100029091060289172F
S11307D088F42091FD013091FE012115310551F07D
S11307E091E0980F90930002F901E80FF11D8081C8
S11307F08FB904C0891710F083E28FB9FF91EF918C
S11308009F918F913F912F910F900FBE0F901F904A
S113081018958AB18B7F9BB19D7F9BB988618AB9FA
S113082083E389B910BC80E008955D9BFECF8CB949
S113083080E008955F9BFECF8CB108950F931F93C2
S1130840CF938C01C0E003C00E941504CF5FF80170
S1130850EC0FF11D80818111F7CFCF911F910F9182
S113086008950F931F93CF93DF938C01D62FC0E08D
S11308700BC00E941A04F801EC0FF11D80838D3027
S113088059F00E941504CF5F2C2F30E08D2F90E09B
S11308900197281739076CF3F801EC0FF11D10824A
S11108A0DF91CF911F910F910895F894FFCF2F
S11308AE3A003700340031003B0038003500320086
S11308BE0A0D506C65617365207072657373203117
S11308CE20666F7220656E746572696E672075732B
S11308DE6572206D6F646520616E64203220666FD0
S11308EE722070726F6772616D6D696E67206D6FC5
S11308FE64653A00496E76616C69642043686F6979
S113090E63652C20000A0D2D2D2D2D2D2D2D2D2D15
S113091E2D2D2D2D2055736572204D6F6465202D60
S113092E2D2D2D2D2D2D2D2D2D2D2D2D0A000D4E34
S113093E6F74206E756D6572696320000D62656C4F
S113094E6F7720342064696720000A0D456E746544
S113095E7220436172642050616E203A20000A0DA9
S113096E496E76616C69642050616E204E756D62BD
S113097E6572202D206D75737420636F6E746169BA
S113098E6E204E756D62657273206F6E6C79000AFF
S113099E0D496E76616C69642050616E204E756DE2
S11309AE626572202D206D75737420636F6E746191
S11309BE696E206174206C65617374203136206E0B
S11309CE756D626572730031000A0D456E74657241
S11309DE20796F75722050494E203A20000A0D433B
S11309EE6F6E6669726D20596F75722050494E2074
S11309FE3A20000A0D50696E204E6F74204D6174BA
S1130A0E63686564000A0D50696E204D61746368F5
S1070A1E6564000007
S9030000FC
