S0160000416972436F6E646974696F6E65722E7372656374
S11300000C9439000C9456000C9456000C94560031
S11300100C9456000C9456000C9456000C94560004
S11300200C9456000C9456000C9456000C94B90988
S11300300C9456000C9456000C9456000C945600E4
S11300400C9456000C9456000C9456000C945600D4
S11300500C945600C807CD07D307D807DD07E3077C
S1130060E8071B08200826082D0833083A08420828
S1130070490811241FBECFE5D8E0DEBFCDBF11E093
S1130080A0E6B0E0EAE2F9E102C005900D92A435E1
S1130090B107D9F721E0A4E5B1E001C01D92A4366F
S11300A0B207E1F70E949A070C94930C0C94000099
S11300B081E0809358010E94B60664E080E00E94CB
S11300C0C9068EE890E00E94DD0641E064EF71E02D
S11300D080E090E00E94FE028CE00E949F0508955B
S11300E0CF93DF9387E990E00E94DD0641E064EF5F
S11300F071E080E090E00E94FE020E94B60662E198
S113010070E080E090E00E94F50667E080E00E94E5
S1130110C9066091610070E080E090E00E94F506FD
S11301206EE080E00E94C90663E270E080E090E047
S11301300E94F5061092590160E081E00E94C90610
S113014080916100833241F488EA90E00E94DD06E8
S113015080E1809359011AC0823179F483E191E0FE
S11301600E94DD0613C08CE70E945206809159015B
S11301708F5F80935901219602C0C0E0D0E0809146
S1130180610090E04297C817D9076CF328E530E086
S113019042E065E070E080E090E00E94A403DF911B
S11301A0CF9108950E9403068CE00E949F050E944F
S11301B055048AE591E00E94370783E690E00E94A7
S11301C0E60261E084E690E00E941407789464E01B
S11301D080E00E94C90689EB90E00E94DD0642E0BF
S11301E061E070E080E090E00E94FE020E94B606AA
S11301F082EC90E00E94DD0667E081E00E94C9067F
S113020064E170E080E090E00E94F50642E061E085
S113021070E080E090E00E94FE020E94B6060E9418
S1130220700008954F925F926F927F928F929F9287
S1130230AF92BF92CF92DF92EF92FF920E94940509
S113024080935F01823009F4CEC030F4882359F0E2
S1130250813009F46AC022C1833009F4ECC08430CF
S113026009F4FCC01BC180915801811146C08091E2
S11302706200833209F49DC167E080E00E94C906F0
S1130280609162006F5F6093620070E080E090E0D4
S11302900E94F50680916200833249F460E081E0B7
S11302A00E94C90688EA90E00E94DD061AC08331E4
S11302B061F460E081E00E94C90681ED90E00E9453
S11302C0DD0681E0809359010CC06091590181E001
S11302D0860F8093590181E00E94C9068CE70E9431
S11302E052060E94500428E530E042E065E070E0E8
S11302F080E090E00E94A4035CC10E94B60682EEF6
S113030090E00E94DD0660E081E00E94C90681EF72
S113031090E00E94DD0641E064EF71E080E090E04F
S11303200E94FE020E94B60644C1809158018111C8
S113033042C080916200823109F43BC167E080E0F1
S11303400E94C9066091620061506093620070E08F
S113035080E090E00E94F50680916200823249F4C8
S113036060E081E00E94C90681E091E00E94DD0620
S113037016C0823149F460E081E00E94C90682E13E
S113038091E00E94DD060BC06091590161506093B9
S1130390590181E00E94C90680E20E9452060E942F
S11303A0500428E530E042E065E070E080E090E051
S11303B00E94A403FEC00E94B60682EE90E00E9452
S11303C0DD0660E081E00E94C90681EF90E00E94B2
S11303D0DD0641E064EF71E080E090E00E94FE02FF
S11303E00E94B606E6C08091580181110CC081E0DC
S11303F08093580180916200809361000E94B60648
S11304000E945004D6C00E94B60682EE90E00E947C
S1130410DD0660E081E00E94C90681EF90E00E9461
S1130420DD0641E064EF71E080E090E00E94FE02AE
S11304300E94B606BEC080915801882309F4B9C051
S113044080916100809362001092580160E083E61D
S113045090E00E94F4020E947000ABC080915801A9
S1130460882309F4A6C084E1809361000E94B60643
S113047084E291E00E94DD0660E081E00E94C9060A
S113048083E391E00E94DD0641E064EF71E080E0E7
S113049090E00E94FE020E94B6068BC0809160002C
S11304A0823309F042C01092600064E571E08AE58D
S11304B091E00E943D078090540190905501A090D6
S11304C05601B0905701C501B4010E94DB0A6B01CB
S11304D07C010E940A0B2B013C019B01AC01C5016C
S11304E0B4010E94F70920E030E040E05FE30E949D
S11304F0BC0B88238CF0C701B6016F5F7F4F8F4F11
S11305009F4F0E940A0B609354017093550180938E
S11305105601909357010DC04092540150925501D9
S1130520609256017092570104C08F5F80936000FF
S113053040C0809158018823E1F160E080E00E948E
S1130540C9068CE391E00E94DD066091540170912C
S1130550550180915601909157010E94DB0A0E9437
S1130560F5066091610070E080E090E00E940C0B61
S113057020915401309155014091560150915701F9
S11305800E94640A88234CF481E00E94520661E0D0
S113059083E690E00E94F4020CC06FE080E00E94C9
S11305A0C90680E20E94520660E083E690E00E9461
S11305B0F402FF90EF90DF90CF90BF90AF909F90A8
S11305C08F907F906F905F904F900895CF93DF93BB
S11305D0EC0161E088810E94B80860E088810E9493
S11305E0F808DF91CF910895009731F0FC018081E4
S11305F00E94F80880E0089581E008958F929F9208
S1130600AF92BF92CF92DF92EF92FF920F931F931C
S1130610CF93DF9300D0CDB7DEB76B017C014230BE
S113062059F49B01AC0160E472E48FE090E00E9415
S11306302E0C6B017C010DC0413049F4A8EEB3E0EF
S11306409B01AC010E94440C6B017C0102C041116E
S11306506BC088E8C81683E1D806E104F104C8F049
S113066088EAC81681E6D806E104F104A0F088E41B
S1130670C81688EED80681E0E806F10470F080E23E
S1130680C81681EAD80687E0E806F10440F414E0CD
S113069007C011E005C012E003C013E001C015E07B
S11306A0E12FF0E03197EE0FFF1FE65BFE4F608114
S11306B0718176956795769567957695679580E0CF
S11306C090E00E940A0B4B015C01C701B6010E9435
S11306D00A0BA50194010E94690A0E94DB0AF62E06
S11306E0072F80E00E9457098F2D81950E94880969
S11306F0812F0E94700910E011C0CE0101960E9462
S11307008A09CE0102960E9498098981811103C049
S11307108A818111F2CF0E9494091F5F011768F743
S11307200E947E0980E001C081E00F900F90DF916C
S1130730CF911F910F91FF90EF90DF90CF90BF90DA
S1130740AF909F908F9008954F925F926F927F9297
S11307508F929F92BF92CF92DF92EF92FF921F935C
S1130760CF93DF931F92CDB7DEB76B017C01142FBB
S11307704901CE0101960E9498098981813009F4CA
S11307807CC0123059F4A701960160E472E48FE052
S113079090E00E942E0C6B017C010DC0113049F4D5
S11307A0A8EEB3E0A70196010E94440C6B017C0102
S11307B002C0111164C088E8C81683E1D806E104B8
S11307C0F104D8F088EAC81681E6D806E104F104F9
S11307D0B8F088E4C81688EED80681E0E806F1048B
S11307E098F080E2C81681EAD80687E0E806F104AA
S11307F080F46894BB24B2F810C0BB24B3940DC039
S11308006894BB24B1F809C00F2EF3E0BF2EF02D7D
S113081004C00F2EF5E0BF2EF02DEB2DF0E0319744
S1130820EE0FFF1FE65BFE4F608171817695679541
S1130830769567957695679580E090E00E940A0B1F
S11308402B013C01C701B6010E940A0BA3019201CE
S11308500E94690A0E94DB0AF62E70935E01C401AD
S11308600E94AF098F2D81950E9488090E94A709D3
S11308708B2D0E94700980E003C081E001C081E0FB
S11308800F90DF91CF911F91FF90EF90DF90CF9069
S1130890BF909F908F907F906F905F904F9008953E
S11308A00E947E090E94AB09089561E082E10E94E2
S11308B0B80861E083E10E94B80861E084E10E9425
S11308C0B80860E085E10E94B80860E086E10E9413
S11308D0B80860E087E10E94B8080895CF93DF93D9
S11308E01F92CDB7DEB761E085E10E94F80861E0B0
S11308F086E10E94F80861E087E10E94F80861E05F
S113090083E10E94F80861E084E10E94F80860E055
S113091082E10E94F80881E08983BE016F5F7F4F06
S113092085E10E9438098981882339F00BC0BE0112
S11309306F5F7F4F85E10E94380989818823B9F36D
S113094080E02AC0BE016F5F7F4F86E10E943809B4
S11309508981882339F00BC0BE016F5F7F4F86E128
S11309600E94380989818823B9F381E015C0BE014A
S11309706F5F7F4F87E10E9438098981882341F0A6
S113098089E00AC0BE016F5F7F4F87E10E9438098A
S113099089818823B9F382E00F90DF91CF91089584
S11309A0CF93DF931F92CDB7DEB761E085E10E945C
S11309B0F80861E086E10E94F80861E087E10E949E
S11309C0F80861E082E10E94F80861E084E10E9495
S11309D0F80860E083E10E94F80881E08983BE01A1
S11309E06F5F7F4F85E10E9438098981882339F040
S11309F00BC0BE016F5F7F4F85E10E94380989817A
S1130A008823B9F383E02AC0BE016F5F7F4F86E17C
S1130A100E9438098981882339F00BC0BE016F5FB9
S1130A207F4F86E10E94380989818823B9F384E0E5
S1130A3015C0BE016F5F7F4F87E10E94380989812D
S1130A40882341F089E00AC0BE016F5F7F4F87E1D0
S1130A500E94380989818823B9F385E00F90DF91DA
S1130A60CF910895CF93DF931F92CDB7DEB761E0A6
S1130A7085E10E94F80861E086E10E94F80861E0DF
S1130A8087E10E94F80861E082E10E94F80861E0D1
S1130A9083E10E94F80860E084E10E94F80881E0A4
S1130AA08983BE016F5F7F4F85E10E943809898188
S1130AB0882339F00BC0BE016F5F7F4F85E10E9430
S1130AC0380989818823B9F386E02AC0BE016F5FA3
S1130AD07F4F86E10E9438098981882339F00BC051
S1130AE0BE016F5F7F4F86E10E94380989818823A8
S1130AF0B9F387E015C0BE016F5F7F4F87E10E94A5
S1130B0038098981882341F089E00AC0BE016F5FFA
S1130B107F4F87E10E94380989818823B9F388E0EF
S1130B200F90DF91CF9108950E946E04893031F4C3
S1130B300E94D004893011F40E94320508951F9355
S1130B40CF93DF93D82F60E082E00E94F80860E042
S1130B5081E00E94F8081D2F12951F70C0E011C09B
S1130B60EC2FF0E0612F70E00C2E02C075956795B4
S1130B700A94E2F76170E459FF4F80810E94F808FB
S1130B80CF5FC43068F361E083E00E94F80889EF26
S1130B9090E00197F1F700C0000060E083E00E945C
S1130BA0F80892E49A95F1F700C0DF70C0E011C034
S1130BB0EC2FF0E06D2F70E00C2E02C07595679558
S1130BC00A94E2F76170E459FF4F80810E94F808AB
S1130BD0CF5FC43068F361E083E00E94F80889EFD6
S1130BE090E00197F1F700C0000060E083E00E940C
S1130BF0F80883EF91E00197F1F700C00000DF915E
S1130C00CF911F910895CF93C0E009C0EC2FF0E07D
S1130C10E459FF4F61E080810E94B808CF5FC4307F
S1130C20A8F361E081E00E94B80861E082E00E94DC
S1130C30B80861E083E00E94B8088FE097E201976A
S1130C40F1F700C0000082E00E949F0589EF90E068
S1130C500197F1F700C0000088E20E949F0589EF28
S1130C6090E00197F1F700C0000081E00E949F0529
S1130C7087EE93E00197F1F700C0000086E00E9440
S1130C809F0589EF90E00197F1F700C000008EE026
S1130C900E949F0589EF90E00197F1F700C00000E2
S1130CA0CF9108951F93CF93DF93D82F60E082E014
S1130CB00E94F80861E081E00E94F8081D2F129557
S1130CC01F70C0E011C0EC2FF0E0612F70E00C2E1B
S1130CD002C0759567950A94E2F76170E459FF4F75
S1130CE080810E94F808CF5FC43068F361E083E03C
S1130CF00E94F80889EF90E00197F1F700C0000026
S1130D0060E083E00E94F80892E49A95F1F700C04D
S1130D10DF70C0E011C0EC2FF0E06D2F70E00C2EFE
S1130D2002C0759567950A94E2F76170E459FF4F24
S1130D3080810E94F808CF5FC43068F361E083E0EB
S1130D400E94F80889EF90E00197F1F700C00000D5
S1130D5060E083E00E94F80883EF91E00197F1F7E7
S1130D6000C00000DF91CF911F91089581E00E949F
S1130D709F0587EE93E00197F1F700C0000082E041
S1130D800E949F0587EE93E00197F1F700C00000F1
S1130D900895811108C0603130F4862F8F70806807
S1130DA00E949F050895813039F4603128F4862F1C
S1130DB08F70806C0E949F0508950F931F93CF93AB
S1130DC0DF938C01FC018081C0E0D0E007C00E9469
S1130DD052062196F801EC0FFD1F80818111F7CF97
S1130DE0DF91CF911F910F910895CF93DF93CDB7EA
S1130DF0DEB72A970FB6F894DEBF0FBECDBFDC0175
S1130E00CB014AE0BE016F5F7F4F0E945E0CCE01B2
S1130E1001960E94DD062A960FB6F894DEBF0FBE37
S1130E20CDBFDF91CF9108950F931F93CF93683077
S1130E30D0F48C01862F90E00896880F880F880FD5
S1130E400E949F0589EF90E00197F1F700C0000030
S1130E50C0E007C0F801EC0FF11D80810E9452062A
S1130E60CF5FC830B8F3CF911F910F91089560E020
S1130E70FC0180810E94B80808950F931F93CF93BB
S1130E80DF9300D0CDB7DEB7892B09F449C06115D3
S1130E90710509F447C08B0140E0BE016F5F7F4FCD
S1130EA080E790E00E94930880917200813069F499
S1130EB080E090E0A0EABBE380936001909361013D
S1130EC0A0936201B09363010EC0833061F48AE0A1
S1130ED097EDA3E2BBE38093600190936101A0933B
S1130EE06201B093630189819A8124E6289FB0014D
S1130EF0299F700D112480E090E00E940A0B20913C
S1130F0060013091610140916201509163010E943E
S1130F10C10BF801608371838283938380E003C0F3
S1130F2081E001C081E00F900F90DF91CF911F917C
S1130F300F9108950E94D2000E941201FDCFDC019E
S1130F40892B09F46AC086B18F7786B912968C9181
S1130F501297813041F018F0833051F00CC087B102
S1130F608F7387B908C087B180648F7787B903C04E
S1130F7087B1806C87B91496EC9114974E2F50E08A
S1130F804730510540F5FA01E65DFF4F0C943E0CE5
S1130F9086B18160897F86B91EC086B18E7F8260EA
S1130FA08B7F86B918C086B183608B7F86B913C0E6
S1130FB086B18C7F846086B90EC086B181608D7FD6
S1130FC0846086B908C086B18E7F866086B903C006
S1130FD086B1876086B913968C911397882319F08C
S1130FE0813029F007C087B18F7D87B903C087B1ED
S1130FF0806287B915968C91882319F0813029F085
S113100007C086B1886086B903C086B1877F86B978
S113101086B1806886B981E0089580E00895892BBF
S1131020F1F1862F90E088309105D8F5FC01EF5C52
S1131030FF4F0C943E0C87B1807F87B981E00895FF
S113104087B18160817F87B981E0089587B18E7F00
S11310508260837F87B981E0089587B18360837F4D
S113106087B981E0089587B18C7F8460877F87B9D1
S113107081E0089587B181608D7F8460877F87B91F
S113108081E0089587B18E7F8660877F87B981E08C
S1131090089587B18760877F87B981E0089580E0EC
S11310A0089581E00895892B29F086B1806486B97A
S11310B081E0089580E00895FC01892B71F16115A8
S11310C0710569F196B194FFFDCF9F7E96B9838136
S11310D0882319F0813069F024C024B185B190E0EF
S11310E0982F8827820F911DFB019183808381E0D3
S11310F0089524B185B190E0982F8827820F911D1F
S1131100082E892F000C881F990B000C881F991F2B
S1131110FB019183808381E0089580E0089580E05D
S1131120089581E00895FF920F931F93CF93DF9367
S11311300097A9F061157105A1F0F42E8B01EC0163
S11311400E949F076F2DCE010E940F08CE010E94BE
S11311505308B801CE010E945C0881E003C080E01E
S113116001C080E0DF91CF911F910F91FF9008950E
S11311708032C0F56230C0F5E82FE695E695E69535
S11311808770611117C0F0E0EE0FFF1FE258FF4FA8
S11311900190F081E02D408121E030E0B90102C0EE
S11311A0660F771F8A95E2F7CB01809584238083AD
S11311B080E008956130D1F4F0E0EE0FFF1FE258B3
S11311C0FF4F0190F081E02D408121E030E0B90132
S11311D002C0660F771F8A95E2F7CB01842B8083C8
S11311E080E008958FEF08958FEF089580E00895CB
S11311F08032C0F56230C0F5E82FE695E695E695B5
S11312008770611117C0F0E0EE0FFF1FEA57FF4F20
S11312100190F081E02D408121E030E0B90102C06D
S1131220660F771F8A95E2F7CB018095842380832C
S113123080E008956130D1F4F0E0EE0FFF1FEA572B
S1131240FF4F0190F081E02D408121E030E0B901B1
S113125002C0660F771F8A95E2F7CB01842B808347
S113126080E008958FEF08958FEF089580E008954A
S11312708032D8F4E82FE695E695E6958770F0E09D
S1131280EE0FFF1FEA58FF4F0190F081E02D2081FF
S113129030E0A90102C0559547958A95E2F7CA0145
S11312A08170FB01808380E008958FEF0895813081
S11312B061F028F0823029F0833029F00FC020E05B
S11312C005C028E003C028E401C020E493B7977B5D
S11312D093BF83B7822B83BF80E0089581E0089594
S11312E09FEF980F973040F493B7987F93BF93B7CD
S11312F0892B83BF80E0089581E0089583B7887FB8
S113130083BF12BE88B78E7F88BF10925D01089597
S113131082BF0895FC01892B29F098B791709083BE
S113132080E0089581E0089588B7816088BF0895BA
S1131330FC01892B51F093B7977021F081E08083F1
S113134080E00895108280E0089581E0089589B7CF
S1131350816089BF089589B78E7F89BF08950097FA
S113136031F090935C0180935B0180E0089581E00B
S113137008951F920F920FB60F9211242F933F934B
S11313804F935F936F937F938F939F93AF93BF9389
S1131390EF93FF9380915B0190915C01892BB1F0F5
S11313A080915D0190915E0189130DC00E947E09B8
S11313B010925D0189B78E7F89BFE0915B01F09146
S11313C05C01099503C08F5F80935D01FF91EF91EC
S11313D0BF91AF919F918F917F916F915F914F9149
S11313E03F912F910F900FBE0F901F90189550585A
S11313F0BB27AA270E940F0A0C94820B0E94740B2D
S113140038F00E947B0B20F039F49F3F19F426F446
S11314100C94710B0EF4E095E7FB0C946B0BE92F25
S11314200E94930B58F3BA17620773078407950752
S113143020F079F4A6F50C94B50B0EF4E0950B2E80
S1131440BA2FA02D0B01B90190010C01CA01A00112
S11314501124FF27591B99F0593F50F4503E68F16D
S11314601A16F040A22F232F342F4427585FF3CFAE
S1131470469537952795A795F0405395C9F77EF47F
S11314801F16BA0B620B730B840BBAF09150A1F0C8
S1131490FF0FBB1F661F771F881FC2F70EC0BA0F4E
S11314A0621F731F841F48F4879577956795B795D6
S11314B0F7959E3F08F0B0CF9395880F08F09927D1
S11314C0EE0F9795879508950E94470B08F481E0E5
S11314D008950E947D0A0C94820B0E947B0B58F0A5
S11314E00E94740B40F029F45F3F29F00C946B0BBD
S11314F051110C94B60B0C94710B0E94930B68F36E
S11315009923B1F3552391F3951B550BBB27AA27B8
S113151062177307840738F09F5F5F4F220F331FF2
S1131520441FAA1FA9F335D00E2E3AF0E0E832D0BA
S113153091505040E695001CCAF72BD0FE2F29D0BD
S1131540660F771F881FBB1F261737074807AB078F
S1131550B0E809F0BB0B802DBF01FF2793585F4F04
S11315603AF09E3F510578F00C946B0B0C94B60B3B
S11315705F3FE4F3983ED4F3869577956795B795E6
S1131580F7959F5FC9F7880F911D9695879597F9F1
S11315900895E1E0660F771F881FBB1F621773076A
S11315A08407BA0720F0621B730B840BBA0BEE1F7F
S11315B088F7E09508950E949B0B88F09F5798F058
S11315C0B92F9927B751B0F0E1F0660F771F881F44
S11315D0991F1AF0BA95C9F714C0B13091F00E945E
S11315E0B50BB1E008950C94B50B672F782F8827BD
S11315F0B85F39F0B93FCCF3869577956795B39585
S1131600D9F73EF490958095709561957F4F8F4FF3
S11316109F4F0895E89409C097FB3EF490958095F8
S1131620709561957F4F8F4F9F4F9923A9F0F92FA4
S113163096E9BB279395F695879577956795B79522
S1131640F111F8CFFAF4BB0F11F460FF1BC06F5F08
S11316507F4F8F4F9F4F16C0882311F096E911C01A
S1131660772321F09EE8872F762F05C0662371F03B
S113167096E8862F70E060E02AF09A95660F771F4F
S1131680881FDAF7880F9695879597F90895990F2B
S11316900008550FAA0BE0E8FEEF16161706E80738
S11316A0F907C0F012161306E407F50798F0621B59
S11316B0730B840B950B39F40A2661F0232B242B2E
S11316C0252B21F408950A2609F4A140A6958FEF4D
S11316D0811D811D089597F99F6780E870E060E09F
S11316E008959FEF80EC089500240A9416161706B7
S11316F018060906089500240A94121613061406FF
S113170005060895092E0394000C11F4882352F061
S1131710BB0F40F4BF2B11F460FF04C06F5F7F4F19
S11317208F4F9F4F089557FD9058440F551F59F000
S11317305F3F71F04795880F97FB991F61F09F3FBA
S113174079F087950895121613061406551FF2CFE3
S11317504695F1DF08C0161617061806991FF1CF33
S113176086957105610508940895E894BB2766275A
S11317707727CB0197F908950E94470B08F48FEF60
S113178008950E94D40B0C94820B0E94740B38F0C1
S11317900E947B0B20F0952311F00C946B0B0C949E
S11317A0710B11240C94B60B0E94930B70F3959F4C
S11317B0C1F3950F50E0551F629FF001729FBB2744
S11317C0F00DB11D639FAA27F00DB11DAA1F649FE0
S11317D06627B00DA11D661F829F2227B00DA11D93
S11317E0621F739FB00DA11D621F839FA00D611D19
S11317F0221F749F3327A00D611D231F849F600D3A
S1131800211D822F762F6A2F11249F5750409AF062
S1131810F1F088234AF0EE0FFF1FBB1F661F771FEE
S1131820881F91505040A9F79E3F510580F00C94B9
S11318306B0B0C94B60B5F3FE4F3983ED4F38695A0
S113184077956795B795F795E7959F5FC1F7FE2B59
S1131850880F911D9695879597F90895DB018F93CD
S11318609F930E94440CBF91AF91A29F800D911D44
S1131870A39F900DB29F900D11240895EE0FFF1FAA
S11318800590F491E02D09940E944F0CA59F900DB2
S1131890B49F900DA49F800D911D11240895A29FC3
S11318A0B001B39FC001A39F700D811D1124911D30
S11318B0B29F700D811D1124911D0895BB274A30DC
S11318C031F4992322F4BDE2909581959F4F0C94B5
S11318D06A0CBB27FB015527AA27880F991FAA1F4B
S11318E0A41710F0A41B83955051B9F7A05DAA3337
S11318F008F0A95DA193009779F7B111B193119202
S1131900CB010C94830CDC01FC01672F71917723CC
S1131910E1F7329704C07C916D9370836291AE17A6
S10D1920BF07C8F30895F894FFCF41
S113192A3214140C040E0E0E1F00040004050607DC
S113193A00000100050139003600330030003A0086
S113194A3700340031003B00380035003200546956
S113195A6D656F757421005069636B2074656D70D1
S113196A6572617475726500202020204D617820AB
S113197A54656D70202020200057656C636F6D6577
S113198A21002044656661756C742074656D703A33
S113199A007C2020202020202020202020202020FD
S11319AA200054686973204F7065726174696F6EA0
S11319BA006973206E6F7420616C6C6F77656421A3
S11319CA007C7C7C7C7C7C7C7C7C7C7C7C7C7C7CC5
S11319DA7C0020202020204D696E2054656D7020E3
S11319EA2020200054656D702073657420746F2064
S11319FA32300064656772656573210043757272DB
S1131A0A656E742074656D70200001000800400042
S1071A1A09010004B6
S9030000FC
