:100000000C9439000C9456000C9456000C94560035
:100010000C9456000C9456000C9456000C94560008
:100020000C9456000C9456000C9456000C948109C4
:100030000C9456000C9456000C9456000C945600E8
:100040000C9456000C9456000C9456000C945600D8
:100050000C945600940799079F07A407A907AF07B8
:10006000B407E707EC07F207F907FF0706080E08D1
:10007000150811241FBECFE5D8E0DEBFCDBF11E0CB
:10008000A0E6B0E0EAEBF8E102C005900D92AC33D7
:10009000B107D9F721E0ACE3B1E001C01D92AB3468
:1000A000B207E1F70E9466070C945B0C0C94000009
:1000B00081E0809341010E94820664E080E00E941A
:1000C00095068EE890E00E94A90641E064EF71E099
:1000D00080E090E00E94CA028CE00E946B050895C7
:1000E000CF93DF9387E990E00E94A90641E064EF97
:1000F00071E080E090E00E94CA020E94820662E104
:1001000070E080E090E00E94C10667E080E00E941D
:1001100095066091610070E080E090E00E94C10669
:100120006EE080E00E94950663E270E080E090E07F
:100130000E94C1061092400160E081E00E94950695
:10014000C0E0D0E009C08CE70E941E06809140010B
:100150008F5F8093400121968091610090E04297EB
:10016000C817D90784F328E530E042E065E070E085
:1001700080E090E00E947003DF91CF9108950E948B
:10018000CF058CE00E946B050E94210482E491E07F
:100190000E94030783E690E00E94B20261E084E6D9
:1001A00090E00E94E006789464E080E00E9495066A
:1001B00088EA90E00E94A90642E061E070E080E0F9
:1001C00090E00E94CA020E94820681EB90E00E94A9
:1001D000A90667E081E00E94950664E170E080E096
:1001E00090E00E94C10642E061E070E080E090E0B3
:1001F0000E94CA020E9482060E94700008954F92D7
:100200005F926F927F928F929F92AF92BF92CF92A6
:10021000DF92EF92FF920E9460059927823091054C
:1002200009F4C8C034F4009761F0019709F466C07E
:1002300002C18330910509F4E5C0049709F4F4C0C4
:10024000FAC080914101811141C0809162008332E6
:1002500009F4F1C0823141F460E081E00E9495062A
:1002600080EC90E00E94A90667E080E00E9495067D
:10027000609162006F5F6093620070E080E090E0E8
:100280000E94C10680916200833241F460E081E007
:100290000E94950681ED90E00E94A90660914001C0
:1002A00081E0860F8093400181E00E9495068CE7F3
:1002B0000E941E060E941C0428E530E042E065E032
:1002C00070E080E090E00E947003B5C00E9482065A
:1002D00082EE90E00E94A90660E081E00E9495060F
:1002E00081EF90E00E94A90641E064EF71E080E0B8
:1002F00090E00E94CA020E9482069DC08091410146
:10030000811140C080916200823109F494C083322F
:1003100041F460E081E00E94950681E091E00E9456
:10032000A90667E080E00E94950660916200615036
:100330006093620070E080E090E00E94C1066091EE
:10034000400161506093400181E00E94950680E287
:100350000E941E0680914001811108C060E081E08A
:100360000E94950682E191E00E94A9060E941C0469
:1003700028E530E042E065E070E080E090E00E9437
:10038000700359C00E94820682EE90E00E94A90686
:1003900060E081E00E94950681EF90E00E94A9064E
:1003A00041E064EF71E080E090E00E94CA020E94A8
:1003B000820641C08091410181110CC081E080938F
:1003C000410180916200809361000E9482060E9438
:1003D0001C0431C00E94820682EE90E00E94A906B1
:1003E00060E081E00E94950681EF90E00E94A906FE
:1003F00041E064EF71E080E090E00E94CA020E9458
:10040000820619C0809141018823A9F08091610082
:10041000809362001092410160E083E690E00E94C8
:10042000C0020E94700007C080914101882319F02A
:1004300084E18093610080916000823309F042C0C2
:10044000109260006CE371E082E491E00E94090781
:1004500080903C0190903D01A0903E01B0903F0102
:10046000C501B4010E94A30A6B017C010E94D20A5B
:100470002B013C019B01AC01C501B4010E94BF09E5
:1004800020E030E040E05FE30E94840B88238CF0A2
:10049000C701B6016F5F7F4F8F4F9F4F0E94D20AF7
:1004A00060933C0170933D0180933E0190933F0126
:1004B0000CC040923C0150923D0160923E0170920E
:1004C0003F0103C08F5F80936000809141018823CA
:1004D000E1F160E080E00E94950684E291E00E94F4
:1004E000A90660913C0170913D0180913E0190917F
:1004F0003F010E94A30A0E94C1066091610070E062
:1005000080E090E00E94D40A20913C0130913D01AE
:1005100040913E0150913F010E942C0A88234CF4E7
:1005200081E00E941E0661E083E690E00E94C00226
:100530000CC06FE080E00E94950680E20E941E06DB
:1005400060E083E690E00E94C002FF90EF90DF90B1
:10055000CF90BF90AF909F908F907F906F905F9063
:100560004F900895CF93DF93EC0161E088810E9462
:10057000840860E088810E94C408DF91CF910895CB
:10058000009731F0FC0180810E94C40880E008954A
:1005900081E008958F929F92AF92BF92CF92DF92A7
:1005A000EF92FF920F931F93CF93DF9300D0CDB7BD
:1005B000DEB76B017C01423059F49B01AC0160E471
:1005C00072E48FE090E00E94F60B6B017C010DC09D
:1005D000413049F4A8EEB3E09B01AC010E940C0C41
:1005E0006B017C0102C041116BC088E8C81683E131
:1005F000D806E104F104C8F088EAC81681E6D806F6
:10060000E104F104A0F088E4C81688EED80681E081
:10061000E806F10470F080E2C81681EAD80687E0A7
:10062000E806F10440F414E007C011E005C012E050
:1006300003C013E001C015E0E12FF0E03197EE0FA9
:10064000FF1FEE5CFE4F6081718176956795769510
:1006500067957695679580E090E00E94D20A4B01FD
:100660005C01C701B6010E94D20AA50194010E9453
:10067000310A0E94A30AF62E072F80E00E94230968
:100680008F2D81950E945409812F0E943C0910E012
:1006900011C0CE0101960E945609CE0102960E9419
:1006A00064098981811103C08A818111F2CF0E947E
:1006B00060091F5F011768F70E944A0980E001C0C6
:1006C00081E00F900F90DF91CF911F910F91FF90DC
:1006D000EF90DF90CF90BF90AF909F908F90089554
:1006E0004F925F926F927F928F929F92BF92CF9222
:1006F000DF92EF92FF921F93CF93DF931F92CDB7BC
:10070000DEB76B017C01142F4901CE0101960E94D6
:1007100064098981813009F47CC0123059F4A70141
:10072000960160E472E48FE090E00E94F60B6B01AA
:100730007C010DC0113049F4A8EEB3E0A701960189
:100740000E940C0C6B017C0102C0111164C088E88E
:10075000C81683E1D806E104F104D8F088EAC81687
:1007600081E6D806E104F104B8F088E4C81688EE02
:10077000D80681E0E806F10498F080E2C81681EA24
:10078000D80687E0E806F10480F46894BB24B2F848
:1007900010C0BB24B3940DC06894BB24B1F809C049
:1007A0000F2EF3E0BF2EF02D04C00F2EF5E0BF2E6C
:1007B000F02DEB2DF0E03197EE0FFF1FEE5CFE4FBA
:1007C0006081718176956795769567957695679541
:1007D00080E090E00E94D20A2B013C01C701B601E3
:1007E0000E94D20AA30192010E94310A0E94A30A28
:1007F000F62E70934601C4010E947C098F2D8195CD
:100800000E9454090E9474098B2D0E943C0980E0CB
:1008100003C081E001C081E00F90DF91CF911F9173
:10082000FF90EF90DF90CF90BF909F908F907F9040
:100830006F905F904F9008950E944A090E94780936
:10084000089561E082E10E94840861E083E10E94F2
:10085000840861E084E10E94840860E085E10E94F0
:10086000840860E086E10E94840860E087E10E94DD
:1008700084080895CF93DF931F92CDB7DEB761E070
:1008800085E10E94C40861E086E10E94C40861E03D
:1008900087E10E94C40861E083E10E94C40861E02E
:1008A00084E10E94C40860E082E10E94C40881E003
:1008B0008983BE016F5F7F4F85E10E9404098981B2
:1008C000882339F00BC0BE016F5F7F4F85E10E9426
:1008D000040989818823B9F380E02AC0BE016F5FD3
:1008E0007F4F86E10E9404098981882339F00BC07B
:1008F000BE016F5F7F4F86E10E94040989818823D2
:10090000B9F381E015C0BE016F5F7F4F87E10E94A0
:1009100004098981882341F089E00AC0BE016F5F24
:100920007F4F87E10E94040989818823B9F382E01F
:100930000F90DF91CF910895CF93DF931F92CDB7A2
:10094000DEB761E085E10E94C40861E086E10E94B3
:10095000C40861E087E10E94C40861E082E10E946E
:10096000C40861E084E10E94C40860E083E10E9461
:10097000C40881E08983BE016F5F7F4F85E10E94DB
:1009800004098981882339F00BC0BE016F5F7F4F56
:1009900085E10E94040989818823B9F383E02AC094
:1009A000BE016F5F7F4F86E10E9404098981882321
:1009B00039F00BC0BE016F5F7F4F86E10E940409D2
:1009C00089818823B9F384E015C0BE016F5F7F4F32
:1009D00087E10E9404098981882341F089E00AC0E7
:1009E000BE016F5F7F4F87E10E94040989818823E0
:1009F000B9F385E00F90DF91CF910895CF93DF9306
:100A00001F92CDB7DEB761E085E10E94C40861E0C6
:100A100086E10E94C40861E087E10E94C40861E0A9
:100A200082E10E94C40861E083E10E94C40860E0A2
:100A300084E10E94C40881E08983BE016F5F7F4F1B
:100A400085E10E9404098981882339F00BC0BE0129
:100A50006F5F7F4F85E10E94040989818823B9F384
:100A600086E02AC0BE016F5F7F4F86E10E940409C5
:100A70008981882339F00BC0BE016F5F7F4F86E10B
:100A80000E94040989818823B9F387E015C0BE015B
:100A90006F5F7F4F87E10E9404098981882341F0BD
:100AA00089E00AC0BE016F5F7F4F87E10E940409A1
:100AB00089818823B9F388E00F90DF91CF91089561
:100AC0000E943A04893031F40E949C04893011F468
:100AD0000E94FE0408951F93CF93DF93D82F60E008
:100AE00082E00E94C40860E081E00E94C4081D2FDB
:100AF00012951F70C0E011C0EC2FF0E0612F70E084
:100B00000C2E02C0759567950A94E2F76170E4595E
:100B1000FF4F80810E94C408CF5FC43068F361E05A
:100B200083E00E94C40889EF90E00197F1F700C0CC
:100B3000000060E083E00E94C40892E49A95F1F717
:100B400000C0DF70C0E011C0EC2FF0E06D2F70E04E
:100B50000C2E02C0759567950A94E2F76170E4590E
:100B6000FF4F80810E94C408CF5FC43068F361E00A
:100B700083E00E94C40889EF90E00197F1F700C07C
:100B8000000060E083E00E94C40883EF91E00197D9
:100B9000F1F700C00000DF91CF911F910895CF932E
:100BA000C0E009C0EC2FF0E0E459FF4F61E0808124
:100BB0000E948408CF5FC430A8F361E081E00E9406
:100BC000840861E082E00E94840861E083E00E9482
:100BD00084088FE097E20197F1F700C0000082E0FF
:100BE0000E946B0589EF90E00197F1F700C00000CB
:100BF00088E20E946B0589EF90E00197F1F700C051
:100C0000000081E00E946B0587EE93E00197F1F709
:100C100000C0000086E00E946B0589EF90E001971C
:100C2000F1F700C000008EE00E946B0589EF90E0B4
:100C30000197F1F700C00000CF9108951F93CF9363
:100C4000DF93D82F60E082E00E94C40861E081E079
:100C50000E94C4081D2F12951F70C0E011C0EC2F18
:100C6000F0E0612F70E00C2E02C0759567950A9434
:100C7000E2F76170E459FF4F80810E94C408CF5FA2
:100C8000C43068F361E083E00E94C40889EF90E01B
:100C90000197F1F700C0000060E083E00E94C40803
:100CA00092E49A95F1F700C0DF70C0E011C0EC2F1C
:100CB000F0E06D2F70E00C2E02C0759567950A94D8
:100CC000E2F76170E459FF4F80810E94C408CF5F52
:100CD000C43068F361E083E00E94C40889EF90E0CB
:100CE0000197F1F700C0000060E083E00E94C408B3
:100CF00083EF91E00197F1F700C00000DF91CF9101
:100D00001F91089581E00E946B0587EE93E00197A3
:100D1000F1F700C0000082E00E946B0587EE93E0CF
:100D20000197F1F700C000000895811108C06031FB
:100D300030F4862F8F7080680E946B050895813093
:100D400039F4603128F4862F8F70806C0E946B0517
:100D500008950F931F93CF93DF938C01FC01808143
:100D6000C0E0D0E007C00E941E062196F801EC0FFB
:100D7000FD1F80818111F7CFDF91CF911F910F91DE
:100D80000895CF93DF93CDB7DEB72A970FB6F894C7
:100D9000DEBF0FBECDBFDC01CB014AE0BE016F5FFD
:100DA0007F4F0E94260CCE0101960E94A9062A962A
:100DB0000FB6F894DEBF0FBECDBFDF91CF9108957F
:100DC0000F931F93CF936830D0F48C01862F90E05F
:100DD0000896880F880F880F0E946B0589EF90E0B6
:100DE0000197F1F700C00000C0E007C0F801EC0F68
:100DF000F11D80810E941E06CF5FC830B8F3CF91ED
:100E00001F910F91089560E0FC0180810E94840889
:100E100008950F931F93CF93DF9300D0CDB7DEB724
:100E2000892B09F449C06115710509F447C08B018C
:100E300040E0BE016F5F7F4F80E790E00E945F0857
:100E400080917200813069F480E090E0A0EABBE319
:100E50008093470190934801A0934901B0934A01C0
:100E60000EC0833061F48AE097EDA3E2BBE3809388
:100E7000470190934801A0934901B0934A018981A9
:100E80009A8124E6289FB001299F700D112480E0EB
:100E900090E00E94D20A2091470130914801409190
:100EA000490150914A010E94890BF80160837183C6
:100EB0008283938380E003C081E001C081E00F90D2
:100EC0000F90DF91CF911F910F9108950E94BF0065
:100ED0000E94FF00FDCFDC01892B09F46AC086B1B6
:100EE0008F7786B912968C911297813041F018F065
:100EF000833051F00CC087B18F7387B908C087B1B8
:100F000080648F7787B903C087B1806C87B91496E6
:100F1000EC9114974E2F50E04730510540F5FA01FF
:100F2000E65DFF4F0C94060C86B18160897F86B91F
:100F30001EC086B18E7F82608B7F86B918C086B155
:100F400083608B7F86B913C086B18C7F846086B93D
:100F50000EC086B181608D7F846086B908C086B17D
:100F60008E7F866086B903C086B1876086B9139686
:100F70008C911397882319F0813029F007C087B12D
:100F80008F7D87B903C087B1806287B915968C9130
:100F9000882319F0813029F007C086B1886086B9AE
:100FA00003C086B1877F86B986B1806886B981E043
:100FB000089580E00895892BF1F1862F90E0883024
:100FC0009105D8F5FC01EF5CFF4F0C94060C87B13E
:100FD000807F87B981E0089587B18160817F87B97B
:100FE00081E0089587B18E7F8260837F87B981E039
:100FF000089587B18360837F87B981E0089587B1C1
:101000008C7F8460877F87B981E0089587B1816094
:101010008D7F8460877F87B981E0089587B18E7F57
:101020008660877F87B981E0089587B18760877F71
:1010300087B981E0089580E0089581E00895892BC3
:1010400029F086B1806486B981E0089580E0089532
:10105000FC01892B71F16115710569F196B194FF5D
:10106000FDCF9F7E96B98381882319F0813069F086
:1010700024C024B185B190E0982F8827820F911D5C
:10108000FB019183808381E0089524B185B190E0D4
:10109000982F8827820F911D082E892F000C881FFA
:1010A000990B000C881F991FFB019183808381E0BD
:1010B000089580E0089580E0089581E00895FF920A
:1010C0000F931F93CF93DF930097A9F061157105DC
:1010D000A1F0F42E8B01EC010E946B076F2DCE0165
:1010E0000E94DB07CE010E941F08B801CE010E94BA
:1010F000280881E003C080E001C080E0DF91CF914B
:101100001F910F91FF9008958032C0F56230C0F5B5
:10111000E82FE695E695E6958770611117C0F0E037
:10112000EE0FFF1FE258FF4F0190F081E02D40814C
:1011300021E030E0B90102C0660F771F8A95E2F71F
:10114000CB0180958423808380E008956130D1F4C1
:10115000F0E0EE0FFF1FE258FF4F0190F081E02D0D
:10116000408121E030E0B90102C0660F771F8A9507
:10117000E2F7CB01842B808380E008958FEF089500
:101180008FEF089580E008958032C0F56230C0F599
:10119000E82FE695E695E6958770611117C0F0E0B7
:1011A000EE0FFF1FEA57FF4F0190F081E02D4081C5
:1011B00021E030E0B90102C0660F771F8A95E2F79F
:1011C000CB0180958423808380E008956130D1F441
:1011D000F0E0EE0FFF1FEA57FF4F0190F081E02D86
:1011E000408121E030E0B90102C0660F771F8A9587
:1011F000E2F7CB01842B808380E008958FEF089580
:101200008FEF089580E008958032D8F4E82FE695B6
:10121000E695E6958770F0E0EE0FFF1FEA58FF4F66
:101220000190F081E02D208130E0A90102C05595A8
:1012300047958A95E2F7CA018170FB01808380E0BF
:1012400008958FEF0895813061F028F0823029F001
:10125000833029F00FC020E005C028E003C028E457
:1012600001C020E493B7977B93BF83B7822B83BFE2
:1012700080E0089581E008959FEF980F973040F443
:1012800093B7987F93BF93B7892B83BF80E008956E
:1012900081E0089583B7887F83BF12BE88B78E7FB1
:1012A00088BF10924501089582BF0895FC01892BE3
:1012B00029F098B79170908380E0089581E00895B7
:1012C00088B7816088BF0895009761F003B600FE7B
:1012D00005C021E0FC01208380E00895FC0110821C
:1012E00080E0089581E0089589B7816089BF0895FD
:1012F00089B78E7F89BF08959093440180934301FD
:1013000008951F920F920FB60F9211242F933F93BF
:101310004F935F936F937F938F939F93AF93BF93FD
:10132000EF93FF938091430190914401892BB1F099
:10133000809145019091460189130DC00E944A0990
:101340001092450189B78E7F89BFE0914301F091EA
:101350004401099503C08F5F80934501FF91EF9190
:10136000BF91AF919F918F917F916F915F914F91BD
:101370003F912F910F900FBE0F901F9018955058CE
:10138000BB27AA270E94D7090C944A0B0E943C0B4A
:1013900038F00E94430B20F039F49F3F19F426F4F3
:1013A0000C94390B0EF4E095E7FB0C94330BE92F0A
:1013B0000E945B0B58F3BA176207730784079507FF
:1013C00020F079F4A6F50C947D0B0EF4E0950B2E2D
:1013D000BA2FA02D0B01B90190010C01CA01A00187
:1013E0001124FF27591B99F0593F50F4503E68F1E2
:1013F0001A16F040A22F232F342F4427585FF3CF23
:10140000469537952795A795F0405395C9F77EF4F3
:101410001F16BA0B620B730B840BBAF09150A1F03C
:10142000FF0FBB1F661F771F881FC2F70EC0BA0FC2
:10143000621F731F841F48F4879577956795B7954A
:10144000F7959E3F08F0B0CF9395880F08F0992745
:10145000EE0F9795879508950E940F0B08F481E091
:1014600008950E94450A0C944A0B0E94430B58F0C1
:101470000E943C0B40F029F45F3F29F00C94330BA1
:1014800051110C947E0B0C94390B0E945B0B68F38A
:101490009923B1F3552391F3951B550BBB27AA272D
:1014A00062177307840738F09F5F5F4F220F331F67
:1014B000441FAA1FA9F335D00E2E3AF0E0E832D02F
:1014C00091505040E695001CCAF72BD0FE2F29D032
:1014D000660F771F881FBB1F261737074807AB0704
:1014E000B0E809F0BB0B802DBF01FF2793585F4F79
:1014F0003AF09E3F510578F00C94330B0C947E0B20
:101500005F3FE4F3983ED4F3869577956795B7955A
:10151000F7959F5FC9F7880F911D9695879597F965
:101520000895E1E0660F771F881FBB1F62177307DE
:101530008407BA0720F0621B730B840BBA0BEE1FF3
:1015400088F7E09508950E94630B88F09F5798F004
:10155000B92F9927B751B0F0E1F0660F771F881FB8
:10156000991F1AF0BA95C9F714C0B13091F00E94D2
:101570007D0BB1E008950C947D0B672F782F8827A1
:10158000B85F39F0B93FCCF3869577956795B395F9
:10159000D9F73EF490958095709561957F4F8F4F68
:1015A0009F4F0895E89409C097FB3EF4909580956D
:1015B000709561957F4F8F4F9F4F9923A9F0F92F19
:1015C00096E9BB279395F695879577956795B79597
:1015D000F111F8CFFAF4BB0F11F460FF1BC06F5F7D
:1015E0007F4F8F4F9F4F16C0882311F096E911C08F
:1015F000772321F09EE8872F762F05C0662371F0B0
:1016000096E8862F70E060E02AF09A95660F771FC3
:10161000881FDAF7880F9695879597F90895990F9F
:101620000008550FAA0BE0E8FEEF16161706E807AC
:10163000F907C0F012161306E407F50798F0621BCD
:10164000730B840B950B39F40A2661F0232B242BA2
:10165000252B21F408950A2609F4A140A6958FEFC1
:10166000811D811D089597F99F6780E870E060E013
:1016700008959FEF80EC089500240A94161617062B
:1016800018060906089500240A9412161306140673
:1016900005060895092E0394000C11F4882352F0D6
:1016A000BB0F40F4BF2B11F460FF04C06F5F7F4F8E
:1016B0008F4F9F4F089557FD9058440F551F59F075
:1016C0005F3F71F04795880F97FB991F61F09F3F2F
:1016D00079F087950895121613061406551FF2CF58
:1016E0004695F1DF08C0161617061806991FF1CFA8
:1016F00086957105610508940895E894BB276627CF
:101700007727CB0197F908950E940F0B08F48FEF0C
:1017100008950E949C0B0C944A0B0E943C0B38F0DD
:101720000E94430B20F0952311F00C94330B0C9482
:10173000390B11240C947E0B0E945B0B70F3959F68
:10174000C1F3950F50E0551F629FF001729FBB27B8
:10175000F00DB11D639FAA27F00DB11DAA1F649F54
:101760006627B00DA11D661F829F2227B00DA11D07
:10177000621F739FB00DA11D621F839FA00D611D8D
:10178000221F749F3327A00D611D231F849F600DAE
:10179000211D822F762F6A2F11249F5750409AF0D7
:1017A000F1F088234AF0EE0FFF1FBB1F661F771F63
:1017B000881F91505040A9F79E3F510580F00C942E
:1017C000330B0C947E0B5F3FE4F3983ED4F3869585
:1017D00077956795B795F795E7959F5FC1F7FE2BCE
:1017E000880F911D9695879597F90895DB018F9342
:1017F0009F930E940C0CBF91AF91A29F800D911DF1
:10180000A39F900DB29F900D11240895EE0FFF1F1E
:101810000590F491E02D09940E94170CA59F900D5E
:10182000B49F900DA49F800D911D11240895A29F37
:10183000B001B39FC001A39F700D811D1124911DA4
:10184000B29F700D811D1124911D0895BB274A3050
:1018500031F4992322F4BDE2909581959F4F0C9429
:10186000320CBB27FB015527AA27880F991FAA1FF7
:10187000A41710F0A41B83955051B9F7A05DAA33AB
:1018800008F0A95DA193009779F7B111B193119276
:10189000CB010C944B0CDC01FC01672F7191772379
:1018A000E1F7329704C07C916D9370836291AE171B
:0A18B000BF07C8F30895F894FFCFB6
:1018BA003214140C040E0E0E1F0004000405060751
:1018CA0000000100050139003600330030003A00FB
:1018DA003700340031003B003800350032005469CB
:1018EA006D656F757421005069636B2074656D7046
:1018FA00657261747572650057656C636F6D6521F9
:10190A00002044656661756C742074656D703A00D8
:10191A0020202020202020202020202020202020BD
:10192A0000202020204D61782054656D70202020F1
:10193A00200054686973204F7065726174696F6E14
:10194A00006973206E6F7420616C6C6F7765642117
:10195A00007C7C7C7C7C7C7C7C7C7C7C7C7C7C7C39
:10196A007C0020202020204D696E2054656D702057
:10197A002020200043757272656E742074656D7044
:0C198A00200001000800400009010004DA
:00000001FF
